{
  "_format": "hh-sol-artifact-1",
  "contractName": "HeroMarketplace",
  "sourceName": "contracts/HeroMarketplace.sol",
  "abi": [
    {
      "inputs": [
        {
          "internalType": "contract IERC20",
          "name": "_token",
          "type": "address"
        },
        {
          "internalType": "contract IERC721Enumerable",
          "name": "_nft",
          "type": "address"
        }
      ],
      "stateMutability": "nonpayable",
      "type": "constructor"
    },
    {
      "anonymous": false,
      "inputs": [
        {
          "indexed": false,
          "internalType": "address",
          "name": "from",
          "type": "address"
        },
        {
          "indexed": false,
          "internalType": "uint256",
          "name": "_tokenId",
          "type": "uint256"
        },
        {
          "indexed": false,
          "internalType": "uint256",
          "name": "_price",
          "type": "uint256"
        }
      ],
      "name": "BuyNft",
      "type": "event"
    },
    {
      "anonymous": false,
      "inputs": [
        {
          "indexed": true,
          "internalType": "address",
          "name": "_from",
          "type": "address"
        },
        {
          "indexed": false,
          "internalType": "uint256",
          "name": "_tokenid",
          "type": "uint256"
        },
        {
          "indexed": false,
          "internalType": "uint256",
          "name": "_price",
          "type": "uint256"
        }
      ],
      "name": "ListNft",
      "type": "event"
    },
    {
      "anonymous": false,
      "inputs": [
        {
          "indexed": true,
          "internalType": "address",
          "name": "previousOwner",
          "type": "address"
        },
        {
          "indexed": true,
          "internalType": "address",
          "name": "newOwner",
          "type": "address"
        }
      ],
      "name": "OwnershipTransferred",
      "type": "event"
    },
    {
      "anonymous": false,
      "inputs": [
        {
          "indexed": false,
          "internalType": "contract IERC721Enumerable",
          "name": "_nft",
          "type": "address"
        }
      ],
      "name": "SetNft",
      "type": "event"
    },
    {
      "anonymous": false,
      "inputs": [
        {
          "indexed": false,
          "internalType": "uint256",
          "name": "_tax",
          "type": "uint256"
        }
      ],
      "name": "SetTax",
      "type": "event"
    },
    {
      "anonymous": false,
      "inputs": [
        {
          "indexed": false,
          "internalType": "contract IERC20",
          "name": "_token",
          "type": "address"
        }
      ],
      "name": "SetToken",
      "type": "event"
    },
    {
      "anonymous": false,
      "inputs": [
        {
          "indexed": true,
          "internalType": "address",
          "name": "_from",
          "type": "address"
        },
        {
          "indexed": false,
          "internalType": "uint256",
          "name": "_tokenId",
          "type": "uint256"
        }
      ],
      "name": "UnListNft",
      "type": "event"
    },
    {
      "anonymous": false,
      "inputs": [
        {
          "indexed": false,
          "internalType": "uint256",
          "name": "_tokenid",
          "type": "uint256"
        },
        {
          "indexed": false,
          "internalType": "uint256",
          "name": "_price",
          "type": "uint256"
        }
      ],
      "name": "UpdateListingNftPrice",
      "type": "event"
    },
    {
      "inputs": [
        {
          "internalType": "uint256",
          "name": "_tokenId",
          "type": "uint256"
        },
        {
          "internalType": "uint256",
          "name": "_price",
          "type": "uint256"
        }
      ],
      "name": "buyNft",
      "outputs": [],
      "stateMutability": "nonpayable",
      "type": "function"
    },
    {
      "inputs": [],
      "name": "getListedNft",
      "outputs": [
        {
          "components": [
            {
              "internalType": "address payable",
              "name": "author",
              "type": "address"
            },
            {
              "internalType": "uint256",
              "name": "price",
              "type": "uint256"
            },
            {
              "internalType": "uint256",
              "name": "tokenId",
              "type": "uint256"
            }
          ],
          "internalType": "struct HeroMarketplace.ListDetail[]",
          "name": "",
          "type": "tuple[]"
        }
      ],
      "stateMutability": "view",
      "type": "function"
    },
    {
      "inputs": [
        {
          "internalType": "uint256",
          "name": "_tokenId",
          "type": "uint256"
        },
        {
          "internalType": "uint256",
          "name": "_price",
          "type": "uint256"
        }
      ],
      "name": "listNft",
      "outputs": [],
      "stateMutability": "nonpayable",
      "type": "function"
    },
    {
      "inputs": [
        {
          "internalType": "address",
          "name": "",
          "type": "address"
        },
        {
          "internalType": "address",
          "name": "",
          "type": "address"
        },
        {
          "internalType": "uint256",
          "name": "",
          "type": "uint256"
        },
        {
          "internalType": "bytes",
          "name": "",
          "type": "bytes"
        }
      ],
      "name": "onERC721Received",
      "outputs": [
        {
          "internalType": "bytes4",
          "name": "",
          "type": "bytes4"
        }
      ],
      "stateMutability": "pure",
      "type": "function"
    },
    {
      "inputs": [],
      "name": "owner",
      "outputs": [
        {
          "internalType": "address",
          "name": "",
          "type": "address"
        }
      ],
      "stateMutability": "view",
      "type": "function"
    },
    {
      "inputs": [],
      "name": "renounceOwnership",
      "outputs": [],
      "stateMutability": "nonpayable",
      "type": "function"
    },
    {
      "inputs": [
        {
          "internalType": "contract IERC721Enumerable",
          "name": "_nft",
          "type": "address"
        }
      ],
      "name": "setNft",
      "outputs": [],
      "stateMutability": "nonpayable",
      "type": "function"
    },
    {
      "inputs": [
        {
          "internalType": "uint256",
          "name": "_tax",
          "type": "uint256"
        }
      ],
      "name": "setTax",
      "outputs": [],
      "stateMutability": "nonpayable",
      "type": "function"
    },
    {
      "inputs": [
        {
          "internalType": "contract IERC20",
          "name": "_token",
          "type": "address"
        }
      ],
      "name": "setToken",
      "outputs": [],
      "stateMutability": "nonpayable",
      "type": "function"
    },
    {
      "inputs": [
        {
          "internalType": "address",
          "name": "newOwner",
          "type": "address"
        }
      ],
      "name": "transferOwnership",
      "outputs": [],
      "stateMutability": "nonpayable",
      "type": "function"
    },
    {
      "inputs": [
        {
          "internalType": "uint256",
          "name": "_tokenId",
          "type": "uint256"
        }
      ],
      "name": "unListnft",
      "outputs": [],
      "stateMutability": "nonpayable",
      "type": "function"
    },
    {
      "inputs": [
        {
          "internalType": "uint256",
          "name": "_tokenId",
          "type": "uint256"
        },
        {
          "internalType": "uint256",
          "name": "_price",
          "type": "uint256"
        }
      ],
      "name": "updateListNftPrice",
      "outputs": [],
      "stateMutability": "nonpayable",
      "type": "function"
    },
    {
      "inputs": [],
      "name": "withdraw",
      "outputs": [],
      "stateMutability": "nonpayable",
      "type": "function"
    },
    {
      "inputs": [],
      "name": "withdrawERC20",
      "outputs": [],
      "stateMutability": "nonpayable",
      "type": "function"
    },
    {
      "inputs": [
        {
          "internalType": "uint256",
          "name": "amount",
          "type": "uint256"
        }
      ],
      "name": "withdrawToken",
      "outputs": [],
      "stateMutability": "nonpayable",
      "type": "function"
    }
  ],
  "bytecode": "0x6080604052600a6003553480156200001657600080fd5b5060405162002fae38038062002fae83398181016040528101906200003c919062000275565b6200005c62000050620000e660201b60201c565b620000ee60201b60201c565b80600160006101000a81548173ffffffffffffffffffffffffffffffffffffffff021916908373ffffffffffffffffffffffffffffffffffffffff16021790555081600260006101000a81548173ffffffffffffffffffffffffffffffffffffffff021916908373ffffffffffffffffffffffffffffffffffffffff1602179055505050620002bc565b600033905090565b60008060009054906101000a900473ffffffffffffffffffffffffffffffffffffffff169050816000806101000a81548173ffffffffffffffffffffffffffffffffffffffff021916908373ffffffffffffffffffffffffffffffffffffffff1602179055508173ffffffffffffffffffffffffffffffffffffffff168173ffffffffffffffffffffffffffffffffffffffff167f8be0079c531659141344cd1fd0a4f28419497f9722a3daafe3b4186f6b6457e060405160405180910390a35050565b600080fd5b600073ffffffffffffffffffffffffffffffffffffffff82169050919050565b6000620001e482620001b7565b9050919050565b6000620001f882620001d7565b9050919050565b6200020a81620001eb565b81146200021657600080fd5b50565b6000815190506200022a81620001ff565b92915050565b60006200023d82620001d7565b9050919050565b6200024f8162000230565b81146200025b57600080fd5b50565b6000815190506200026f8162000244565b92915050565b600080604083850312156200028f576200028e620001b2565b5b60006200029f8582860162000219565b9250506020620002b2858286016200025e565b9150509250929050565b612ce280620002cc6000396000f3fe608060405234801561001057600080fd5b50600436106100f55760003560e01c8063556f808411610097578063f2cb813f11610066578063f2cb813f14610210578063f2fde38b1461022c578063f3c1338714610248578063fe8723e114610264576100f5565b8063556f8084146101ae578063715018a6146101ca5780637a53fde6146101d45780638da5cb5b146101f2576100f5565b80632e5bb6ff116100d35780632e5bb6ff146101625780632ed6d5e81461017e5780633ccfd60b1461018857806350baa62214610192576100f5565b806302fb7272146100fa578063144fa6d714610116578063150b7a0214610132575b600080fd5b610114600480360381019061010f9190611b88565b610280565b005b610130600480360381019061012b9190611c38565b610485565b005b61014c60048036038101906101479190611cf6565b610508565b6040516101599190611db9565b60405180910390f35b61017c60048036038101906101779190611dd4565b610536565b005b61018661057f565b005b6101906106c5565b005b6101ac60048036038101906101a79190611dd4565b610716565b005b6101c860048036038101906101c39190611b88565b6108a0565b005b6101d2610cda565b005b6101dc610cee565b6040516101e99190611f22565b60405180910390f35b6101fa610f52565b6040516102079190611f53565b60405180910390f35b61022a60048036038101906102259190611dd4565b610f7b565b005b61024660048036038101906102419190611f6e565b61120a565b005b610262600480360381019061025d9190611fd9565b61128d565b005b61027e60048036038101906102799190611b88565b611310565b005b3073ffffffffffffffffffffffffffffffffffffffff16600160009054906101000a900473ffffffffffffffffffffffffffffffffffffffff1673ffffffffffffffffffffffffffffffffffffffff16636352211e846040518263ffffffff1660e01b81526004016102f29190612015565b602060405180830381865afa15801561030f573d6000803e3d6000fd5b505050506040513d601f19601f820116820180604052508101906103339190612045565b73ffffffffffffffffffffffffffffffffffffffff1614610389576040517f08c379a0000000000000000000000000000000000000000000000000000000008152600401610380906120cf565b60405180910390fd5b3373ffffffffffffffffffffffffffffffffffffffff166004600084815260200190815260200160002060000160009054906101000a900473ffffffffffffffffffffffffffffffffffffffff1673ffffffffffffffffffffffffffffffffffffffff161461042d576040517f08c379a000000000000000000000000000000000000000000000000000000000815260040161042490612161565b60405180910390fd5b8060046000848152602001908152602001600020600101819055507fe2e86726ee93710d964ddf459bcdd12dca5ce2e7a8921c924502d11432faf1098282604051610479929190612181565b60405180910390a15050565b61048d6116a9565b80600260006101000a81548173ffffffffffffffffffffffffffffffffffffffff021916908373ffffffffffffffffffffffffffffffffffffffff1602179055507fefc1fd16ea80a922086ee4e995739d59b025c1bcea6d1f67855747480c83214b816040516104fd9190612209565b60405180910390a150565b60007facb7d9e3059f17bdabc47ad03f0278ec3c162128a4c73cef5bc7ea8fcd3af9a6905095945050505050565b61053e6116a9565b806003819055507f9fa979502e438dac613eeda5e69bdaf59a326dc09969a480e1e19078b24e15d1816040516105749190612015565b60405180910390a150565b6105876116a9565b600260009054906101000a900473ffffffffffffffffffffffffffffffffffffffff1673ffffffffffffffffffffffffffffffffffffffff1663a9059cbb33600260009054906101000a900473ffffffffffffffffffffffffffffffffffffffff1673ffffffffffffffffffffffffffffffffffffffff166370a08231306040518263ffffffff1660e01b81526004016106219190611f53565b602060405180830381865afa15801561063e573d6000803e3d6000fd5b505050506040513d601f19601f820116820180604052508101906106629190612239565b6040518363ffffffff1660e01b815260040161067f929190612266565b6020604051808303816000875af115801561069e573d6000803e3d6000fd5b505050506040513d601f19601f820116820180604052508101906106c291906122c7565b50565b6106cd6116a9565b3373ffffffffffffffffffffffffffffffffffffffff166108fc479081150290604051600060405180830381858888f19350505050158015610713573d6000803e3d6000fd5b50565b61071e6116a9565b80600260009054906101000a900473ffffffffffffffffffffffffffffffffffffffff1673ffffffffffffffffffffffffffffffffffffffff166370a08231306040518263ffffffff1660e01b815260040161077a9190611f53565b602060405180830381865afa158015610797573d6000803e3d6000fd5b505050506040513d601f19601f820116820180604052508101906107bb9190612239565b10156107fc576040517f08c379a00000000000000000000000000000000000000000000000000000000081526004016107f390612340565b60405180910390fd5b600260009054906101000a900473ffffffffffffffffffffffffffffffffffffffff1673ffffffffffffffffffffffffffffffffffffffff1663a9059cbb33836040518363ffffffff1660e01b8152600401610859929190612266565b6020604051808303816000875af1158015610878573d6000803e3d6000fd5b505050506040513d601f19601f8201168201806040525081019061089c91906122c7565b5050565b80600260009054906101000a900473ffffffffffffffffffffffffffffffffffffffff1673ffffffffffffffffffffffffffffffffffffffff166370a08231336040518263ffffffff1660e01b81526004016108fc9190611f53565b602060405180830381865afa158015610919573d6000803e3d6000fd5b505050506040513d601f19601f8201168201806040525081019061093d9190612239565b101561097e576040517f08c379a0000000000000000000000000000000000000000000000000000000008152600401610975906123ac565b60405180910390fd5b3073ffffffffffffffffffffffffffffffffffffffff16600160009054906101000a900473ffffffffffffffffffffffffffffffffffffffff1673ffffffffffffffffffffffffffffffffffffffff16636352211e846040518263ffffffff1660e01b81526004016109f09190612015565b602060405180830381865afa158015610a0d573d6000803e3d6000fd5b505050506040513d601f19601f82011682018060405250810190610a319190612045565b73ffffffffffffffffffffffffffffffffffffffff1614610a87576040517f08c379a0000000000000000000000000000000000000000000000000000000008152600401610a7e9061243e565b60405180910390fd5b8060046000848152602001908152602001600020600101541115610ae0576040517f08c379a0000000000000000000000000000000000000000000000000000000008152600401610ad7906124d0565b60405180910390fd5b610b0e600260009054906101000a900473ffffffffffffffffffffffffffffffffffffffff16333084611727565b600260009054906101000a900473ffffffffffffffffffffffffffffffffffffffff1673ffffffffffffffffffffffffffffffffffffffff1663a9059cbb6004600085815260200190815260200160002060000160009054906101000a900473ffffffffffffffffffffffffffffffffffffffff1660646003546064610b94919061251f565b85610b9f9190612553565b610ba991906125c4565b6040518363ffffffff1660e01b8152600401610bc6929190612616565b6020604051808303816000875af1158015610be5573d6000803e3d6000fd5b505050506040513d601f19601f82011682018060405250810190610c0991906122c7565b50600160009054906101000a900473ffffffffffffffffffffffffffffffffffffffff1673ffffffffffffffffffffffffffffffffffffffff166342842e0e3033856040518463ffffffff1660e01b8152600401610c699392919061263f565b600060405180830381600087803b158015610c8357600080fd5b505af1158015610c97573d6000803e3d6000fd5b505050507f669ecffc6edf9fcaf33c78a7021fea7fcac42776b92ea815577dd56635774fe6338383604051610cce93929190612676565b60405180910390a15050565b610ce26116a9565b610cec60006117b0565b565b60606000600160009054906101000a900473ffffffffffffffffffffffffffffffffffffffff1673ffffffffffffffffffffffffffffffffffffffff166370a08231306040518263ffffffff1660e01b8152600401610d4d9190611f53565b602060405180830381865afa158015610d6a573d6000803e3d6000fd5b505050506040513d601f19601f82011682018060405250810190610d8e9190612239565b905060008167ffffffffffffffff811115610dac57610dab6126ad565b5b604051908082528060200260200182016040528015610de557816020015b610dd2611b11565b815260200190600190039081610dca5790505b50905060005b82811015610f495760046000600160009054906101000a900473ffffffffffffffffffffffffffffffffffffffff1673ffffffffffffffffffffffffffffffffffffffff16632f745c5930856040518363ffffffff1660e01b8152600401610e54929190612266565b602060405180830381865afa158015610e71573d6000803e3d6000fd5b505050506040513d601f19601f82011682018060405250810190610e959190612239565b81526020019081526020016000206040518060600160405290816000820160009054906101000a900473ffffffffffffffffffffffffffffffffffffffff1673ffffffffffffffffffffffffffffffffffffffff1673ffffffffffffffffffffffffffffffffffffffff16815260200160018201548152602001600282015481525050828281518110610f2b57610f2a6126dc565b5b60200260200101819052508080610f419061270b565b915050610deb565b50809250505090565b60008060009054906101000a900473ffffffffffffffffffffffffffffffffffffffff16905090565b3073ffffffffffffffffffffffffffffffffffffffff16600160009054906101000a900473ffffffffffffffffffffffffffffffffffffffff1673ffffffffffffffffffffffffffffffffffffffff16636352211e836040518263ffffffff1660e01b8152600401610fed9190612015565b602060405180830381865afa15801561100a573d6000803e3d6000fd5b505050506040513d601f19601f8201168201806040525081019061102e9190612045565b73ffffffffffffffffffffffffffffffffffffffff1614611084576040517f08c379a000000000000000000000000000000000000000000000000000000000815260040161107b906127c5565b60405180910390fd5b3373ffffffffffffffffffffffffffffffffffffffff166004600083815260200190815260200160002060000160009054906101000a900473ffffffffffffffffffffffffffffffffffffffff1673ffffffffffffffffffffffffffffffffffffffff1614611128576040517f08c379a000000000000000000000000000000000000000000000000000000000815260040161111f90612831565b60405180910390fd5b600160009054906101000a900473ffffffffffffffffffffffffffffffffffffffff1673ffffffffffffffffffffffffffffffffffffffff166342842e0e3033846040518463ffffffff1660e01b81526004016111879392919061263f565b600060405180830381600087803b1580156111a157600080fd5b505af11580156111b5573d6000803e3d6000fd5b505050503373ffffffffffffffffffffffffffffffffffffffff167f6e9e059261b131063857481dfffb2df058bcba64c3f7c167b05ce5264d2be019826040516111ff9190612015565b60405180910390a250565b6112126116a9565b600073ffffffffffffffffffffffffffffffffffffffff168173ffffffffffffffffffffffffffffffffffffffff1603611281576040517f08c379a0000000000000000000000000000000000000000000000000000000008152600401611278906128c3565b60405180910390fd5b61128a816117b0565b50565b6112956116a9565b80600160006101000a81548173ffffffffffffffffffffffffffffffffffffffff021916908373ffffffffffffffffffffffffffffffffffffffff1602179055507f90c685638d36d35015d1d8ee84e5946908924fdeee0bf2e4d9884154b3a60f71816040516113059190612904565b60405180910390a150565b3373ffffffffffffffffffffffffffffffffffffffff16600160009054906101000a900473ffffffffffffffffffffffffffffffffffffffff1673ffffffffffffffffffffffffffffffffffffffff16636352211e846040518263ffffffff1660e01b81526004016113829190612015565b602060405180830381865afa15801561139f573d6000803e3d6000fd5b505050506040513d601f19601f820116820180604052508101906113c39190612045565b73ffffffffffffffffffffffffffffffffffffffff1614611419576040517f08c379a0000000000000000000000000000000000000000000000000000000008152600401611410906120cf565b60405180910390fd5b3073ffffffffffffffffffffffffffffffffffffffff16600160009054906101000a900473ffffffffffffffffffffffffffffffffffffffff1673ffffffffffffffffffffffffffffffffffffffff1663081812fc846040518263ffffffff1660e01b815260040161148b9190612015565b602060405180830381865afa1580156114a8573d6000803e3d6000fd5b505050506040513d601f19601f820116820180604052508101906114cc9190612045565b73ffffffffffffffffffffffffffffffffffffffff1614611522576040517f08c379a000000000000000000000000000000000000000000000000000000000815260040161151990612991565b60405180910390fd5b60405180606001604052803373ffffffffffffffffffffffffffffffffffffffff168152602001828152602001838152506004600084815260200190815260200160002060008201518160000160006101000a81548173ffffffffffffffffffffffffffffffffffffffff021916908373ffffffffffffffffffffffffffffffffffffffff1602179055506020820151816001015560408201518160020155905050600160009054906101000a900473ffffffffffffffffffffffffffffffffffffffff1673ffffffffffffffffffffffffffffffffffffffff166342842e0e3330856040518463ffffffff1660e01b81526004016116239392919061263f565b600060405180830381600087803b15801561163d57600080fd5b505af1158015611651573d6000803e3d6000fd5b505050503373ffffffffffffffffffffffffffffffffffffffff167f11a31219eec05ce1db0098041104719cdd975d37809d8b588e9aef778dec027b838360405161169d929190612181565b60405180910390a25050565b6116b1611874565b73ffffffffffffffffffffffffffffffffffffffff166116cf610f52565b73ffffffffffffffffffffffffffffffffffffffff1614611725576040517f08c379a000000000000000000000000000000000000000000000000000000000815260040161171c906129fd565b60405180910390fd5b565b6117aa846323b872dd60e01b8585856040516024016117489392919061263f565b604051602081830303815290604052907bffffffffffffffffffffffffffffffffffffffffffffffffffffffff19166020820180517bffffffffffffffffffffffffffffffffffffffffffffffffffffffff838183161783525050505061187c565b50505050565b60008060009054906101000a900473ffffffffffffffffffffffffffffffffffffffff169050816000806101000a81548173ffffffffffffffffffffffffffffffffffffffff021916908373ffffffffffffffffffffffffffffffffffffffff1602179055508173ffffffffffffffffffffffffffffffffffffffff168173ffffffffffffffffffffffffffffffffffffffff167f8be0079c531659141344cd1fd0a4f28419497f9722a3daafe3b4186f6b6457e060405160405180910390a35050565b600033905090565b60006118de826040518060400160405280602081526020017f5361666545524332303a206c6f772d6c6576656c2063616c6c206661696c65648152508573ffffffffffffffffffffffffffffffffffffffff166119449092919063ffffffff16565b90506000815114806119005750808060200190518101906118ff91906122c7565b5b61193f576040517f08c379a000000000000000000000000000000000000000000000000000000000815260040161193690612a8f565b60405180910390fd5b505050565b6060611953848460008561195c565b90509392505050565b6060824710156119a1576040517f08c379a000000000000000000000000000000000000000000000000000000000815260040161199890612b21565b60405180910390fd5b6000808673ffffffffffffffffffffffffffffffffffffffff1685876040516119ca9190612bb2565b60006040518083038185875af1925050503d8060008114611a07576040519150601f19603f3d011682016040523d82523d6000602084013e611a0c565b606091505b5091509150611a1d87838387611a29565b92505050949350505050565b60608315611a8b576000835103611a8357611a4385611a9e565b611a82576040517f08c379a0000000000000000000000000000000000000000000000000000000008152600401611a7990612c15565b60405180910390fd5b5b829050611a96565b611a958383611ac1565b5b949350505050565b6000808273ffffffffffffffffffffffffffffffffffffffff163b119050919050565b600082511115611ad45781518083602001fd5b806040517f08c379a0000000000000000000000000000000000000000000000000000000008152600401611b089190612c8a565b60405180910390fd5b6040518060600160405280600073ffffffffffffffffffffffffffffffffffffffff16815260200160008152602001600081525090565b600080fd5b600080fd5b6000819050919050565b611b6581611b52565b8114611b7057600080fd5b50565b600081359050611b8281611b5c565b92915050565b60008060408385031215611b9f57611b9e611b48565b5b6000611bad85828601611b73565b9250506020611bbe85828601611b73565b9150509250929050565b600073ffffffffffffffffffffffffffffffffffffffff82169050919050565b6000611bf382611bc8565b9050919050565b6000611c0582611be8565b9050919050565b611c1581611bfa565b8114611c2057600080fd5b50565b600081359050611c3281611c0c565b92915050565b600060208284031215611c4e57611c4d611b48565b5b6000611c5c84828501611c23565b91505092915050565b611c6e81611be8565b8114611c7957600080fd5b50565b600081359050611c8b81611c65565b92915050565b600080fd5b600080fd5b600080fd5b60008083601f840112611cb657611cb5611c91565b5b8235905067ffffffffffffffff811115611cd357611cd2611c96565b5b602083019150836001820283011115611cef57611cee611c9b565b5b9250929050565b600080600080600060808688031215611d1257611d11611b48565b5b6000611d2088828901611c7c565b9550506020611d3188828901611c7c565b9450506040611d4288828901611b73565b935050606086013567ffffffffffffffff811115611d6357611d62611b4d565b5b611d6f88828901611ca0565b92509250509295509295909350565b60007fffffffff0000000000000000000000000000000000000000000000000000000082169050919050565b611db381611d7e565b82525050565b6000602082019050611dce6000830184611daa565b92915050565b600060208284031215611dea57611de9611b48565b5b6000611df884828501611b73565b91505092915050565b600081519050919050565b600082825260208201905092915050565b6000819050602082019050919050565b6000611e3882611bc8565b9050919050565b611e4881611e2d565b82525050565b611e5781611b52565b82525050565b606082016000820151611e736000850182611e3f565b506020820151611e866020850182611e4e565b506040820151611e996040850182611e4e565b50505050565b6000611eab8383611e5d565b60608301905092915050565b6000602082019050919050565b6000611ecf82611e01565b611ed98185611e0c565b9350611ee483611e1d565b8060005b83811015611f15578151611efc8882611e9f565b9750611f0783611eb7565b925050600181019050611ee8565b5085935050505092915050565b60006020820190508181036000830152611f3c8184611ec4565b905092915050565b611f4d81611be8565b82525050565b6000602082019050611f686000830184611f44565b92915050565b600060208284031215611f8457611f83611b48565b5b6000611f9284828501611c7c565b91505092915050565b6000611fa682611be8565b9050919050565b611fb681611f9b565b8114611fc157600080fd5b50565b600081359050611fd381611fad565b92915050565b600060208284031215611fef57611fee611b48565b5b6000611ffd84828501611fc4565b91505092915050565b61200f81611b52565b82525050565b600060208201905061202a6000830184612006565b92915050565b60008151905061203f81611c65565b92915050565b60006020828403121561205b5761205a611b48565b5b600061206984828501612030565b91505092915050565b600082825260208201905092915050565b7f596f7520617265206e6f74206f776e6572206f662074686973206e6674000000600082015250565b60006120b9601d83612072565b91506120c482612083565b602082019050919050565b600060208201905081810360008301526120e8816120ac565b9050919050565b7f4f6e6c79206f776e65722063616e20757064617465207072696365206f66207460008201527f686973204e667400000000000000000000000000000000000000000000000000602082015250565b600061214b602783612072565b9150612156826120ef565b604082019050919050565b6000602082019050818103600083015261217a8161213e565b9050919050565b60006040820190506121966000830185612006565b6121a36020830184612006565b9392505050565b6000819050919050565b60006121cf6121ca6121c584611bc8565b6121aa565b611bc8565b9050919050565b60006121e1826121b4565b9050919050565b60006121f3826121d6565b9050919050565b612203816121e8565b82525050565b600060208201905061221e60008301846121fa565b92915050565b60008151905061223381611b5c565b92915050565b60006020828403121561224f5761224e611b48565b5b600061225d84828501612224565b91505092915050565b600060408201905061227b6000830185611f44565b6122886020830184612006565b9392505050565b60008115159050919050565b6122a48161228f565b81146122af57600080fd5b50565b6000815190506122c18161229b565b92915050565b6000602082840312156122dd576122dc611b48565b5b60006122eb848285016122b2565b91505092915050565b7f496e73756666696369656e7420636f6e74726163742062616c616e6365000000600082015250565b600061232a601d83612072565b9150612335826122f4565b602082019050919050565b600060208201905081810360008301526123598161231d565b9050919050565b7f496e73756666696369656e74206163636f756e742062616c616e636500000000600082015250565b6000612396601c83612072565b91506123a182612360565b602082019050919050565b600060208201905081810360008301526123c581612389565b9050919050565b7f54686973204e667420646f65736e27742065786974206f6e206d61726b65747060008201527f6c61636500000000000000000000000000000000000000000000000000000000602082015250565b6000612428602483612072565b9150612433826123cc565b604082019050919050565b600060208201905081810360008301526124578161241b565b9050919050565b7f4d696e696d756d20707269636520686173206e6f74206265656e20726561636860008201527f6564000000000000000000000000000000000000000000000000000000000000602082015250565b60006124ba602283612072565b91506124c58261245e565b604082019050919050565b600060208201905081810360008301526124e9816124ad565b9050919050565b7f4e487b7100000000000000000000000000000000000000000000000000000000600052601160045260246000fd5b600061252a82611b52565b915061253583611b52565b925082820390508181111561254d5761254c6124f0565b5b92915050565b600061255e82611b52565b915061256983611b52565b925082820261257781611b52565b9150828204841483151761258e5761258d6124f0565b5b5092915050565b7f4e487b7100000000000000000000000000000000000000000000000000000000600052601260045260246000fd5b60006125cf82611b52565b91506125da83611b52565b9250826125ea576125e9612595565b5b828204905092915050565b6000612600826121d6565b9050919050565b612610816125f5565b82525050565b600060408201905061262b6000830185612607565b6126386020830184612006565b9392505050565b60006060820190506126546000830186611f44565b6126616020830185611f44565b61266e6040830184612006565b949350505050565b600060608201905061268b6000830186611f44565b6126986020830185612006565b6126a56040830184612006565b949350505050565b7f4e487b7100000000000000000000000000000000000000000000000000000000600052604160045260246000fd5b7f4e487b7100000000000000000000000000000000000000000000000000000000600052603260045260246000fd5b600061271682611b52565b91507fffffffffffffffffffffffffffffffffffffffffffffffffffffffffffffffff8203612748576127476124f0565b5b600182019050919050565b7f5468697320746f6b656e20646f65736e27742065786974206f6e206d61726b6560008201527f74706c6163650000000000000000000000000000000000000000000000000000602082015250565b60006127af602683612072565b91506127ba82612753565b604082019050919050565b600060208201905081810360008301526127de816127a2565b9050919050565b7f4f6e6c79204f776e65722063616e20756e6c6973742074686973206e66740000600082015250565b600061281b601e83612072565b9150612826826127e5565b602082019050919050565b6000602082019050818103600083015261284a8161280e565b9050919050565b7f4f776e61626c653a206e6577206f776e657220697320746865207a65726f206160008201527f6464726573730000000000000000000000000000000000000000000000000000602082015250565b60006128ad602683612072565b91506128b882612851565b604082019050919050565b600060208201905081810360008301526128dc816128a0565b9050919050565b60006128ee826121d6565b9050919050565b6128fe816128e3565b82525050565b600060208201905061291960008301846128f5565b92915050565b7f4d61726b6574706c616365206973206e6f7420617070726f76616c20746f207460008201527f72616e6665722074686973206e66740000000000000000000000000000000000602082015250565b600061297b602f83612072565b91506129868261291f565b604082019050919050565b600060208201905081810360008301526129aa8161296e565b9050919050565b7f4f776e61626c653a2063616c6c6572206973206e6f7420746865206f776e6572600082015250565b60006129e7602083612072565b91506129f2826129b1565b602082019050919050565b60006020820190508181036000830152612a16816129da565b9050919050565b7f5361666545524332303a204552433230206f7065726174696f6e20646964206e60008201527f6f74207375636365656400000000000000000000000000000000000000000000602082015250565b6000612a79602a83612072565b9150612a8482612a1d565b604082019050919050565b60006020820190508181036000830152612aa881612a6c565b9050919050565b7f416464726573733a20696e73756666696369656e742062616c616e636520666f60008201527f722063616c6c0000000000000000000000000000000000000000000000000000602082015250565b6000612b0b602683612072565b9150612b1682612aaf565b604082019050919050565b60006020820190508181036000830152612b3a81612afe565b9050919050565b600081519050919050565b600081905092915050565b60005b83811015612b75578082015181840152602081019050612b5a565b60008484015250505050565b6000612b8c82612b41565b612b968185612b4c565b9350612ba6818560208601612b57565b80840191505092915050565b6000612bbe8284612b81565b915081905092915050565b7f416464726573733a2063616c6c20746f206e6f6e2d636f6e7472616374000000600082015250565b6000612bff601d83612072565b9150612c0a82612bc9565b602082019050919050565b60006020820190508181036000830152612c2e81612bf2565b9050919050565b600081519050919050565b6000601f19601f8301169050919050565b6000612c5c82612c35565b612c668185612072565b9350612c76818560208601612b57565b612c7f81612c40565b840191505092915050565b60006020820190508181036000830152612ca48184612c51565b90509291505056fea2646970667358221220fc6b6de4ecc23d17b08d4df7e7c48e101ea424765587e564336e90d0214f801864736f6c63430008130033",
  "linkReferences": {},
  "deployedLinkReferences": {}
}