{
  "_format": "hh-sol-artifact-1",
  "contractName": "FLPCrowdSale",
  "sourceName": "contracts/FLPCrowndsale.sol",
  "abi": [
    {
      "inputs": [
        {
          "internalType": "uint256",
          "name": "bnb_rate",
          "type": "uint256"
        },
        {
          "internalType": "uint256",
          "name": "usdt_rate",
          "type": "uint256"
        },
        {
          "internalType": "address payable",
          "name": "wallet",
          "type": "address"
        },
        {
          "internalType": "contract IERC20",
          "name": "icotoken",
          "type": "address"
        }
      ],
      "stateMutability": "nonpayable",
      "type": "constructor"
    },
    {
      "anonymous": false,
      "inputs": [
        {
          "indexed": false,
          "internalType": "address",
          "name": "buyer",
          "type": "address"
        },
        {
          "indexed": false,
          "internalType": "uint256",
          "name": "amount",
          "type": "uint256"
        }
      ],
      "name": "BuyTokenByBNB",
      "type": "event"
    },
    {
      "anonymous": false,
      "inputs": [
        {
          "indexed": false,
          "internalType": "address",
          "name": "buyer",
          "type": "address"
        },
        {
          "indexed": false,
          "internalType": "uint256",
          "name": "amount",
          "type": "uint256"
        }
      ],
      "name": "BuyTokenByUSDT",
      "type": "event"
    },
    {
      "anonymous": false,
      "inputs": [
        {
          "indexed": true,
          "internalType": "address",
          "name": "previousOwner",
          "type": "address"
        },
        {
          "indexed": true,
          "internalType": "address",
          "name": "newOwner",
          "type": "address"
        }
      ],
      "name": "OwnershipTransferred",
      "type": "event"
    },
    {
      "anonymous": false,
      "inputs": [
        {
          "indexed": false,
          "internalType": "uint256",
          "name": "new_rate",
          "type": "uint256"
        }
      ],
      "name": "SetBNBRate",
      "type": "event"
    },
    {
      "anonymous": false,
      "inputs": [
        {
          "indexed": false,
          "internalType": "uint256",
          "name": "new_rate",
          "type": "uint256"
        }
      ],
      "name": "SetUSDTRate",
      "type": "event"
    },
    {
      "anonymous": false,
      "inputs": [
        {
          "indexed": false,
          "internalType": "contract IERC20",
          "name": "token_address",
          "type": "address"
        }
      ],
      "name": "SetUSDTToken",
      "type": "event"
    },
    {
      "inputs": [],
      "name": "BNB_rate",
      "outputs": [
        {
          "internalType": "uint256",
          "name": "",
          "type": "uint256"
        }
      ],
      "stateMutability": "view",
      "type": "function"
    },
    {
      "inputs": [],
      "name": "USDT_rate",
      "outputs": [
        {
          "internalType": "uint256",
          "name": "",
          "type": "uint256"
        }
      ],
      "stateMutability": "view",
      "type": "function"
    },
    {
      "inputs": [],
      "name": "_wallet",
      "outputs": [
        {
          "internalType": "address payable",
          "name": "",
          "type": "address"
        }
      ],
      "stateMutability": "view",
      "type": "function"
    },
    {
      "inputs": [],
      "name": "buyTokenByBNB",
      "outputs": [],
      "stateMutability": "payable",
      "type": "function"
    },
    {
      "inputs": [
        {
          "internalType": "uint256",
          "name": "USDTAmount",
          "type": "uint256"
        }
      ],
      "name": "buyTokenByUSDT",
      "outputs": [],
      "stateMutability": "nonpayable",
      "type": "function"
    },
    {
      "inputs": [
        {
          "internalType": "uint256",
          "name": "BNBAmount",
          "type": "uint256"
        }
      ],
      "name": "getTokenAmountBNB",
      "outputs": [
        {
          "internalType": "uint256",
          "name": "",
          "type": "uint256"
        }
      ],
      "stateMutability": "view",
      "type": "function"
    },
    {
      "inputs": [
        {
          "internalType": "uint256",
          "name": "USDTAmount",
          "type": "uint256"
        }
      ],
      "name": "getTokenAmountUSDT",
      "outputs": [
        {
          "internalType": "uint256",
          "name": "",
          "type": "uint256"
        }
      ],
      "stateMutability": "view",
      "type": "function"
    },
    {
      "inputs": [],
      "name": "owner",
      "outputs": [
        {
          "internalType": "address",
          "name": "",
          "type": "address"
        }
      ],
      "stateMutability": "view",
      "type": "function"
    },
    {
      "inputs": [],
      "name": "renounceOwnership",
      "outputs": [],
      "stateMutability": "nonpayable",
      "type": "function"
    },
    {
      "inputs": [
        {
          "internalType": "uint256",
          "name": "new_rate",
          "type": "uint256"
        }
      ],
      "name": "setBNBRate",
      "outputs": [],
      "stateMutability": "nonpayable",
      "type": "function"
    },
    {
      "inputs": [
        {
          "internalType": "uint256",
          "name": "new_rate",
          "type": "uint256"
        }
      ],
      "name": "setUSDTRate",
      "outputs": [],
      "stateMutability": "nonpayable",
      "type": "function"
    },
    {
      "inputs": [
        {
          "internalType": "contract IERC20",
          "name": "token_address",
          "type": "address"
        }
      ],
      "name": "setUSDTToken",
      "outputs": [],
      "stateMutability": "nonpayable",
      "type": "function"
    },
    {
      "inputs": [],
      "name": "token",
      "outputs": [
        {
          "internalType": "contract IERC20",
          "name": "",
          "type": "address"
        }
      ],
      "stateMutability": "view",
      "type": "function"
    },
    {
      "inputs": [
        {
          "internalType": "address",
          "name": "newOwner",
          "type": "address"
        }
      ],
      "name": "transferOwnership",
      "outputs": [],
      "stateMutability": "nonpayable",
      "type": "function"
    },
    {
      "inputs": [],
      "name": "usdtToken",
      "outputs": [
        {
          "internalType": "contract IERC20",
          "name": "",
          "type": "address"
        }
      ],
      "stateMutability": "view",
      "type": "function"
    },
    {
      "inputs": [],
      "name": "withdraw",
      "outputs": [],
      "stateMutability": "nonpayable",
      "type": "function"
    },
    {
      "inputs": [],
      "name": "withdrawERC20",
      "outputs": [],
      "stateMutability": "nonpayable",
      "type": "function"
    }
  ],
  "bytecode": "0x60806040523480156200001157600080fd5b5060405162001e6838038062001e688339818101604052810190620000379190620002bb565b620000576200004b620000f160201b60201c565b620000f960201b60201c565b836002819055508260038190555081600160006101000a81548173ffffffffffffffffffffffffffffffffffffffff021916908373ffffffffffffffffffffffffffffffffffffffff16021790555080600460006101000a81548173ffffffffffffffffffffffffffffffffffffffff021916908373ffffffffffffffffffffffffffffffffffffffff160217905550505050506200032d565b600033905090565b60008060009054906101000a900473ffffffffffffffffffffffffffffffffffffffff169050816000806101000a81548173ffffffffffffffffffffffffffffffffffffffff021916908373ffffffffffffffffffffffffffffffffffffffff1602179055508173ffffffffffffffffffffffffffffffffffffffff168173ffffffffffffffffffffffffffffffffffffffff167f8be0079c531659141344cd1fd0a4f28419497f9722a3daafe3b4186f6b6457e060405160405180910390a35050565b600080fd5b6000819050919050565b620001d781620001c2565b8114620001e357600080fd5b50565b600081519050620001f781620001cc565b92915050565b600073ffffffffffffffffffffffffffffffffffffffff82169050919050565b60006200022a82620001fd565b9050919050565b6200023c816200021d565b81146200024857600080fd5b50565b6000815190506200025c8162000231565b92915050565b60006200026f82620001fd565b9050919050565b6000620002838262000262565b9050919050565b620002958162000276565b8114620002a157600080fd5b50565b600081519050620002b5816200028a565b92915050565b60008060008060808587031215620002d857620002d7620001bd565b5b6000620002e887828801620001e6565b9450506020620002fb87828801620001e6565b93505060406200030e878288016200024b565b92505060606200032187828801620002a4565b91505092959194509250565b611b2b806200033d6000396000f3fe6080604052600436106100fe5760003560e01c8063610757e411610095578063a98ad46c11610064578063a98ad46c146102b6578063acb03d43146102e1578063c5d156511461031e578063f2fde38b14610347578063fc0c546a14610370576100fe565b8063610757e41461022057806366e226bd1461024b578063715018a6146102745780638da5cb5b1461028b576100fe565b80632ed6d5e8116100d15780632ed6d5e8146101bd57806331927737146101d45780633ccfd60b146101de578063592a00e4146101f5576100fe565b8063157fc821146101035780631832d8b61461012e5780631b4622d61461016b5780632be8629914610194575b600080fd5b34801561010f57600080fd5b5061011861039b565b60405161012591906111e0565b60405180910390f35b34801561013a57600080fd5b506101556004803603810190610150919061122c565b6103a1565b60405161016291906111e0565b60405180910390f35b34801561017757600080fd5b50610192600480360381019061018d919061122c565b6103b8565b005b3480156101a057600080fd5b506101bb60048036038101906101b6919061122c565b610401565b005b3480156101c957600080fd5b506101d261044a565b005b6101dc610590565b005b3480156101ea57600080fd5b506101f36107f0565b005b34801561020157600080fd5b5061020a610841565b60405161021791906111e0565b60405180910390f35b34801561022c57600080fd5b50610235610847565b604051610242919061129a565b60405180910390f35b34801561025757600080fd5b50610272600480360381019061026d9190611305565b61086d565b005b34801561028057600080fd5b506102896108f0565b005b34801561029757600080fd5b506102a0610904565b6040516102ad9190611341565b60405180910390f35b3480156102c257600080fd5b506102cb61092d565b6040516102d891906113bb565b60405180910390f35b3480156102ed57600080fd5b506103086004803603810190610303919061122c565b610953565b60405161031591906111e0565b60405180910390f35b34801561032a57600080fd5b506103456004803603810190610340919061122c565b61096a565b005b34801561035357600080fd5b5061036e60048036038101906103699190611402565b610c30565b005b34801561037c57600080fd5b50610385610cb3565b60405161039291906113bb565b60405180910390f35b60025481565b6000600354826103b1919061145e565b9050919050565b6103c0610cd9565b806003819055507fbdaa37e3f6679857d8c3e80d172bd45af732a8658cf1d690c81ca96f5a443b5b816040516103f691906111e0565b60405180910390a150565b610409610cd9565b806002819055507fb0cc740bbbfcd5af22ee3956c6b44d2d6f499e2a86cb11d915fcce88dca2113a8160405161043f91906111e0565b60405180910390a150565b610452610cd9565b600560009054906101000a900473ffffffffffffffffffffffffffffffffffffffff1673ffffffffffffffffffffffffffffffffffffffff1663a9059cbb33600560009054906101000a900473ffffffffffffffffffffffffffffffffffffffff1673ffffffffffffffffffffffffffffffffffffffff166370a08231306040518263ffffffff1660e01b81526004016104ec9190611341565b602060405180830381865afa158015610509573d6000803e3d6000fd5b505050506040513d601f19601f8201168201806040525081019061052d91906114b5565b6040518363ffffffff1660e01b815260040161054a9291906114e2565b6020604051808303816000875af1158015610569573d6000803e3d6000fd5b505050506040513d601f19601f8201168201806040525081019061058d9190611543565b50565b600034905060006105a082610953565b9050600081116105e5576040517f08c379a00000000000000000000000000000000000000000000000000000000081526004016105dc906115cd565b60405180910390fd5b80600460009054906101000a900473ffffffffffffffffffffffffffffffffffffffff1673ffffffffffffffffffffffffffffffffffffffff166370a08231306040518263ffffffff1660e01b81526004016106419190611341565b602060405180830381865afa15801561065e573d6000803e3d6000fd5b505050506040513d601f19601f8201168201806040525081019061068291906114b5565b10156106c3576040517f08c379a00000000000000000000000000000000000000000000000000000000081526004016106ba90611639565b60405180910390fd5b803373ffffffffffffffffffffffffffffffffffffffff1631101561071d576040517f08c379a0000000000000000000000000000000000000000000000000000000008152600401610714906116a5565b60405180910390fd5b600160009054906101000a900473ffffffffffffffffffffffffffffffffffffffff1673ffffffffffffffffffffffffffffffffffffffff166108fc839081150290604051600060405180830381858888f19350505050158015610785573d6000803e3d6000fd5b506107b3600460009054906101000a900473ffffffffffffffffffffffffffffffffffffffff163383610d57565b7ff695091b71a5c3ea41510251da89a66470bbcf1ee118f820a1bab8739e29ea5033826040516107e49291906114e2565b60405180910390a15050565b6107f8610cd9565b3373ffffffffffffffffffffffffffffffffffffffff166108fc479081150290604051600060405180830381858888f1935050505015801561083e573d6000803e3d6000fd5b50565b60035481565b600160009054906101000a900473ffffffffffffffffffffffffffffffffffffffff1681565b610875610cd9565b80600560006101000a81548173ffffffffffffffffffffffffffffffffffffffff021916908373ffffffffffffffffffffffffffffffffffffffff1602179055507f43036333e58a6f9255617b54ec9f5825590c8ee695a222dc35e5001927f07151816040516108e591906113bb565b60405180910390a150565b6108f8610cd9565b6109026000610ddd565b565b60008060009054906101000a900473ffffffffffffffffffffffffffffffffffffffff16905090565b600560009054906101000a900473ffffffffffffffffffffffffffffffffffffffff1681565b600060025482610963919061145e565b9050919050565b6000610975826103a1565b905081600560009054906101000a900473ffffffffffffffffffffffffffffffffffffffff1673ffffffffffffffffffffffffffffffffffffffff166370a08231336040518263ffffffff1660e01b81526004016109d39190611341565b602060405180830381865afa1580156109f0573d6000803e3d6000fd5b505050506040513d601f19601f82011682018060405250810190610a1491906114b5565b1015610a55576040517f08c379a0000000000000000000000000000000000000000000000000000000008152600401610a4c906116a5565b60405180910390fd5b60008111610a98576040517f08c379a0000000000000000000000000000000000000000000000000000000008152600401610a8f90611711565b60405180910390fd5b80600460009054906101000a900473ffffffffffffffffffffffffffffffffffffffff1673ffffffffffffffffffffffffffffffffffffffff166370a08231306040518263ffffffff1660e01b8152600401610af49190611341565b602060405180830381865afa158015610b11573d6000803e3d6000fd5b505050506040513d601f19601f82011682018060405250810190610b3591906114b5565b1015610b76576040517f08c379a0000000000000000000000000000000000000000000000000000000008152600401610b6d906116a5565b60405180910390fd5b610bc6600560009054906101000a900473ffffffffffffffffffffffffffffffffffffffff1633600160009054906101000a900473ffffffffffffffffffffffffffffffffffffffff1685610ea1565b610bf3600460009054906101000a900473ffffffffffffffffffffffffffffffffffffffff163383610d57565b7f5c0161fad3fa89cfebd4a74115d9f81661cdd1b9008d05a238ea9d65088e20643382604051610c249291906114e2565b60405180910390a15050565b610c38610cd9565b600073ffffffffffffffffffffffffffffffffffffffff168173ffffffffffffffffffffffffffffffffffffffff1603610ca7576040517f08c379a0000000000000000000000000000000000000000000000000000000008152600401610c9e906117a3565b60405180910390fd5b610cb081610ddd565b50565b600460009054906101000a900473ffffffffffffffffffffffffffffffffffffffff1681565b610ce1610f2a565b73ffffffffffffffffffffffffffffffffffffffff16610cff610904565b73ffffffffffffffffffffffffffffffffffffffff1614610d55576040517f08c379a0000000000000000000000000000000000000000000000000000000008152600401610d4c9061180f565b60405180910390fd5b565b610dd88363a9059cbb60e01b8484604051602401610d769291906114e2565b604051602081830303815290604052907bffffffffffffffffffffffffffffffffffffffffffffffffffffffff19166020820180517bffffffffffffffffffffffffffffffffffffffffffffffffffffffff8381831617835250505050610f32565b505050565b60008060009054906101000a900473ffffffffffffffffffffffffffffffffffffffff169050816000806101000a81548173ffffffffffffffffffffffffffffffffffffffff021916908373ffffffffffffffffffffffffffffffffffffffff1602179055508173ffffffffffffffffffffffffffffffffffffffff168173ffffffffffffffffffffffffffffffffffffffff167f8be0079c531659141344cd1fd0a4f28419497f9722a3daafe3b4186f6b6457e060405160405180910390a35050565b610f24846323b872dd60e01b858585604051602401610ec29392919061182f565b604051602081830303815290604052907bffffffffffffffffffffffffffffffffffffffffffffffffffffffff19166020820180517bffffffffffffffffffffffffffffffffffffffffffffffffffffffff8381831617835250505050610f32565b50505050565b600033905090565b6000610f94826040518060400160405280602081526020017f5361666545524332303a206c6f772d6c6576656c2063616c6c206661696c65648152508573ffffffffffffffffffffffffffffffffffffffff16610ffa9092919063ffffffff16565b9050600081511480610fb6575080806020019051810190610fb59190611543565b5b610ff5576040517f08c379a0000000000000000000000000000000000000000000000000000000008152600401610fec906118d8565b60405180910390fd5b505050565b60606110098484600085611012565b90509392505050565b606082471015611057576040517f08c379a000000000000000000000000000000000000000000000000000000000815260040161104e9061196a565b60405180910390fd5b6000808673ffffffffffffffffffffffffffffffffffffffff16858760405161108091906119fb565b60006040518083038185875af1925050503d80600081146110bd576040519150601f19603f3d011682016040523d82523d6000602084013e6110c2565b606091505b50915091506110d3878383876110df565b92505050949350505050565b60608315611141576000835103611139576110f985611154565b611138576040517f08c379a000000000000000000000000000000000000000000000000000000000815260040161112f90611a5e565b60405180910390fd5b5b82905061114c565b61114b8383611177565b5b949350505050565b6000808273ffffffffffffffffffffffffffffffffffffffff163b119050919050565b60008251111561118a5781518083602001fd5b806040517f08c379a00000000000000000000000000000000000000000000000000000000081526004016111be9190611ad3565b60405180910390fd5b6000819050919050565b6111da816111c7565b82525050565b60006020820190506111f560008301846111d1565b92915050565b600080fd5b611209816111c7565b811461121457600080fd5b50565b60008135905061122681611200565b92915050565b600060208284031215611242576112416111fb565b5b600061125084828501611217565b91505092915050565b600073ffffffffffffffffffffffffffffffffffffffff82169050919050565b600061128482611259565b9050919050565b61129481611279565b82525050565b60006020820190506112af600083018461128b565b92915050565b60006112c082611259565b9050919050565b60006112d2826112b5565b9050919050565b6112e2816112c7565b81146112ed57600080fd5b50565b6000813590506112ff816112d9565b92915050565b60006020828403121561131b5761131a6111fb565b5b6000611329848285016112f0565b91505092915050565b61133b816112b5565b82525050565b60006020820190506113566000830184611332565b92915050565b6000819050919050565b600061138161137c61137784611259565b61135c565b611259565b9050919050565b600061139382611366565b9050919050565b60006113a582611388565b9050919050565b6113b58161139a565b82525050565b60006020820190506113d060008301846113ac565b92915050565b6113df816112b5565b81146113ea57600080fd5b50565b6000813590506113fc816113d6565b92915050565b600060208284031215611418576114176111fb565b5b6000611426848285016113ed565b91505092915050565b7f4e487b7100000000000000000000000000000000000000000000000000000000600052601160045260246000fd5b6000611469826111c7565b9150611474836111c7565b9250828202611482816111c7565b915082820484148315176114995761149861142f565b5b5092915050565b6000815190506114af81611200565b92915050565b6000602082840312156114cb576114ca6111fb565b5b60006114d9848285016114a0565b91505092915050565b60006040820190506114f76000830185611332565b61150460208301846111d1565b9392505050565b60008115159050919050565b6115208161150b565b811461152b57600080fd5b50565b60008151905061153d81611517565b92915050565b600060208284031215611559576115586111fb565b5b60006115678482850161152e565b91505092915050565b600082825260208201905092915050565b7f416d6f756e74206973205a65726f000000000000000000000000000000000000600082015250565b60006115b7600e83611570565b91506115c282611581565b602082019050919050565b600060208201905081810360008301526115e6816115aa565b9050919050565b7f496e737566666963656e742061636f756e742062616c6c616e63650000000000600082015250565b6000611623601b83611570565b915061162e826115ed565b602082019050919050565b6000602082019050818103600083015261165281611616565b9050919050565b7f496e73756666696369656e74206163636f756e742062616c616e636500000000600082015250565b600061168f601c83611570565b915061169a82611659565b602082019050919050565b600060208201905081810360008301526116be81611682565b9050919050565b7f416d6f756e74206973207a65726f000000000000000000000000000000000000600082015250565b60006116fb600e83611570565b9150611706826116c5565b602082019050919050565b6000602082019050818103600083015261172a816116ee565b9050919050565b7f4f776e61626c653a206e6577206f776e657220697320746865207a65726f206160008201527f6464726573730000000000000000000000000000000000000000000000000000602082015250565b600061178d602683611570565b915061179882611731565b604082019050919050565b600060208201905081810360008301526117bc81611780565b9050919050565b7f4f776e61626c653a2063616c6c6572206973206e6f7420746865206f776e6572600082015250565b60006117f9602083611570565b9150611804826117c3565b602082019050919050565b60006020820190508181036000830152611828816117ec565b9050919050565b60006060820190506118446000830186611332565b6118516020830185611332565b61185e60408301846111d1565b949350505050565b7f5361666545524332303a204552433230206f7065726174696f6e20646964206e60008201527f6f74207375636365656400000000000000000000000000000000000000000000602082015250565b60006118c2602a83611570565b91506118cd82611866565b604082019050919050565b600060208201905081810360008301526118f1816118b5565b9050919050565b7f416464726573733a20696e73756666696369656e742062616c616e636520666f60008201527f722063616c6c0000000000000000000000000000000000000000000000000000602082015250565b6000611954602683611570565b915061195f826118f8565b604082019050919050565b6000602082019050818103600083015261198381611947565b9050919050565b600081519050919050565b600081905092915050565b60005b838110156119be5780820151818401526020810190506119a3565b60008484015250505050565b60006119d58261198a565b6119df8185611995565b93506119ef8185602086016119a0565b80840191505092915050565b6000611a0782846119ca565b915081905092915050565b7f416464726573733a2063616c6c20746f206e6f6e2d636f6e7472616374000000600082015250565b6000611a48601d83611570565b9150611a5382611a12565b602082019050919050565b60006020820190508181036000830152611a7781611a3b565b9050919050565b600081519050919050565b6000601f19601f8301169050919050565b6000611aa582611a7e565b611aaf8185611570565b9350611abf8185602086016119a0565b611ac881611a89565b840191505092915050565b60006020820190508181036000830152611aed8184611a9a565b90509291505056fea26469706673582212209743408a07ee3c981e66b6de5af79828bd25ac057dd248b357ff0053951c9c6364736f6c63430008130033",
  "linkReferences": {},
  "deployedLinkReferences": {}
}