{
  "_format": "hh-sol-artifact-1",
  "contractName": "Vault",
  "sourceName": "contracts/Vault.sol",
  "abi": [
    {
      "inputs": [],
      "stateMutability": "nonpayable",
      "type": "constructor"
    },
    {
      "anonymous": false,
      "inputs": [
        {
          "indexed": true,
          "internalType": "address",
          "name": "previousOwner",
          "type": "address"
        },
        {
          "indexed": true,
          "internalType": "address",
          "name": "newOwner",
          "type": "address"
        }
      ],
      "name": "OwnershipTransferred",
      "type": "event"
    },
    {
      "anonymous": false,
      "inputs": [
        {
          "indexed": true,
          "internalType": "bytes32",
          "name": "role",
          "type": "bytes32"
        },
        {
          "indexed": true,
          "internalType": "bytes32",
          "name": "previousAdminRole",
          "type": "bytes32"
        },
        {
          "indexed": true,
          "internalType": "bytes32",
          "name": "newAdminRole",
          "type": "bytes32"
        }
      ],
      "name": "RoleAdminChanged",
      "type": "event"
    },
    {
      "anonymous": false,
      "inputs": [
        {
          "indexed": true,
          "internalType": "bytes32",
          "name": "role",
          "type": "bytes32"
        },
        {
          "indexed": true,
          "internalType": "address",
          "name": "account",
          "type": "address"
        },
        {
          "indexed": true,
          "internalType": "address",
          "name": "sender",
          "type": "address"
        }
      ],
      "name": "RoleGranted",
      "type": "event"
    },
    {
      "anonymous": false,
      "inputs": [
        {
          "indexed": true,
          "internalType": "bytes32",
          "name": "role",
          "type": "bytes32"
        },
        {
          "indexed": true,
          "internalType": "address",
          "name": "account",
          "type": "address"
        },
        {
          "indexed": true,
          "internalType": "address",
          "name": "sender",
          "type": "address"
        }
      ],
      "name": "RoleRevoked",
      "type": "event"
    },
    {
      "inputs": [],
      "name": "DEFAULT_ADMIN_ROLE",
      "outputs": [
        {
          "internalType": "bytes32",
          "name": "",
          "type": "bytes32"
        }
      ],
      "stateMutability": "view",
      "type": "function"
    },
    {
      "inputs": [],
      "name": "WITHDRAWRER_ROLE",
      "outputs": [
        {
          "internalType": "bytes32",
          "name": "",
          "type": "bytes32"
        }
      ],
      "stateMutability": "view",
      "type": "function"
    },
    {
      "inputs": [
        {
          "internalType": "uint256",
          "name": "_amount",
          "type": "uint256"
        }
      ],
      "name": "deposit",
      "outputs": [],
      "stateMutability": "nonpayable",
      "type": "function"
    },
    {
      "inputs": [
        {
          "internalType": "bytes32",
          "name": "role",
          "type": "bytes32"
        }
      ],
      "name": "getRoleAdmin",
      "outputs": [
        {
          "internalType": "bytes32",
          "name": "",
          "type": "bytes32"
        }
      ],
      "stateMutability": "view",
      "type": "function"
    },
    {
      "inputs": [
        {
          "internalType": "bytes32",
          "name": "role",
          "type": "bytes32"
        },
        {
          "internalType": "uint256",
          "name": "index",
          "type": "uint256"
        }
      ],
      "name": "getRoleMember",
      "outputs": [
        {
          "internalType": "address",
          "name": "",
          "type": "address"
        }
      ],
      "stateMutability": "view",
      "type": "function"
    },
    {
      "inputs": [
        {
          "internalType": "bytes32",
          "name": "role",
          "type": "bytes32"
        }
      ],
      "name": "getRoleMemberCount",
      "outputs": [
        {
          "internalType": "uint256",
          "name": "",
          "type": "uint256"
        }
      ],
      "stateMutability": "view",
      "type": "function"
    },
    {
      "inputs": [
        {
          "internalType": "bytes32",
          "name": "role",
          "type": "bytes32"
        },
        {
          "internalType": "address",
          "name": "account",
          "type": "address"
        }
      ],
      "name": "grantRole",
      "outputs": [],
      "stateMutability": "nonpayable",
      "type": "function"
    },
    {
      "inputs": [
        {
          "internalType": "bytes32",
          "name": "role",
          "type": "bytes32"
        },
        {
          "internalType": "address",
          "name": "account",
          "type": "address"
        }
      ],
      "name": "hasRole",
      "outputs": [
        {
          "internalType": "bool",
          "name": "",
          "type": "bool"
        }
      ],
      "stateMutability": "view",
      "type": "function"
    },
    {
      "inputs": [],
      "name": "maxWithDrawAmount",
      "outputs": [
        {
          "internalType": "uint256",
          "name": "",
          "type": "uint256"
        }
      ],
      "stateMutability": "view",
      "type": "function"
    },
    {
      "inputs": [],
      "name": "owner",
      "outputs": [
        {
          "internalType": "address",
          "name": "",
          "type": "address"
        }
      ],
      "stateMutability": "view",
      "type": "function"
    },
    {
      "inputs": [],
      "name": "renounceOwnership",
      "outputs": [],
      "stateMutability": "nonpayable",
      "type": "function"
    },
    {
      "inputs": [
        {
          "internalType": "bytes32",
          "name": "role",
          "type": "bytes32"
        },
        {
          "internalType": "address",
          "name": "account",
          "type": "address"
        }
      ],
      "name": "renounceRole",
      "outputs": [],
      "stateMutability": "nonpayable",
      "type": "function"
    },
    {
      "inputs": [
        {
          "internalType": "bytes32",
          "name": "role",
          "type": "bytes32"
        },
        {
          "internalType": "address",
          "name": "account",
          "type": "address"
        }
      ],
      "name": "revokeRole",
      "outputs": [],
      "stateMutability": "nonpayable",
      "type": "function"
    },
    {
      "inputs": [
        {
          "internalType": "uint256",
          "name": "_maxMount",
          "type": "uint256"
        }
      ],
      "name": "setMaxWithDrawAmount",
      "outputs": [],
      "stateMutability": "nonpayable",
      "type": "function"
    },
    {
      "inputs": [
        {
          "internalType": "contract IERC20",
          "name": "_token",
          "type": "address"
        }
      ],
      "name": "setToken",
      "outputs": [],
      "stateMutability": "nonpayable",
      "type": "function"
    },
    {
      "inputs": [
        {
          "internalType": "bool",
          "name": "_isEnable",
          "type": "bool"
        }
      ],
      "name": "setWithDrawEnable",
      "outputs": [],
      "stateMutability": "nonpayable",
      "type": "function"
    },
    {
      "inputs": [
        {
          "internalType": "bytes4",
          "name": "interfaceId",
          "type": "bytes4"
        }
      ],
      "name": "supportsInterface",
      "outputs": [
        {
          "internalType": "bool",
          "name": "",
          "type": "bool"
        }
      ],
      "stateMutability": "view",
      "type": "function"
    },
    {
      "inputs": [
        {
          "internalType": "address",
          "name": "newOwner",
          "type": "address"
        }
      ],
      "name": "transferOwnership",
      "outputs": [],
      "stateMutability": "nonpayable",
      "type": "function"
    },
    {
      "inputs": [
        {
          "internalType": "uint256",
          "name": "_amount",
          "type": "uint256"
        },
        {
          "internalType": "address",
          "name": "_to",
          "type": "address"
        }
      ],
      "name": "withDraw",
      "outputs": [],
      "stateMutability": "nonpayable",
      "type": "function"
    },
    {
      "inputs": [],
      "name": "withDrawEnable",
      "outputs": [
        {
          "internalType": "bool",
          "name": "",
          "type": "bool"
        }
      ],
      "stateMutability": "view",
      "type": "function"
    }
  ],
  "bytecode": "0x60806040523480156200001157600080fd5b5062000032620000266200005c60201b60201c565b6200006460201b60201c565b620000566000801b6200004a6200005c60201b60201c565b6200012860201b60201c565b620003ad565b600033905090565b60008060009054906101000a900473ffffffffffffffffffffffffffffffffffffffff169050816000806101000a81548173ffffffffffffffffffffffffffffffffffffffff021916908373ffffffffffffffffffffffffffffffffffffffff1602179055508173ffffffffffffffffffffffffffffffffffffffff168173ffffffffffffffffffffffffffffffffffffffff167f8be0079c531659141344cd1fd0a4f28419497f9722a3daafe3b4186f6b6457e060405160405180910390a35050565b6200013a82826200013e60201b60201c565b5050565b6200015082826200017c60201b60201c565b6200017781600260008581526020019081526020016000206200026d60201b90919060201c565b505050565b6200018e8282620002a560201b60201c565b6200026957600180600084815260200190815260200160002060000160008373ffffffffffffffffffffffffffffffffffffffff1673ffffffffffffffffffffffffffffffffffffffff16815260200190815260200160002060006101000a81548160ff0219169083151502179055506200020e6200005c60201b60201c565b73ffffffffffffffffffffffffffffffffffffffff168173ffffffffffffffffffffffffffffffffffffffff16837f2f8788117e7eff1d82e926ec794901d17c78024a50270940304540a733656f0d60405160405180910390a45b5050565b60006200029d836000018373ffffffffffffffffffffffffffffffffffffffff1660001b6200031060201b60201c565b905092915050565b60006001600084815260200190815260200160002060000160008373ffffffffffffffffffffffffffffffffffffffff1673ffffffffffffffffffffffffffffffffffffffff16815260200190815260200160002060009054906101000a900460ff16905092915050565b60006200032483836200038a60201b60201c565b6200037f57826000018290806001815401808255809150506001900390600052602060002001600090919091909150558260000180549050836001016000848152602001908152602001600020819055506001905062000384565b600090505b92915050565b600080836001016000848152602001908152602001600020541415905092915050565b61255d80620003bd6000396000f3fe608060405234801561001057600080fd5b506004361061012c5760003560e01c80639010d07c116100ad578063bc83c53c11610071578063bc83c53c1461031b578063ca15c87314610339578063d547741f14610369578063d690558a14610385578063f2fde38b146103a15761012c565b80639010d07c1461026357806391d1485414610293578063a217fddf146102c3578063b6b55f25146102e1578063b9d7c701146102fd5761012c565b806336568abe116100f457806336568abe146101e7578063415b3bc414610203578063715018a61461021f578063845fb211146102295780638da5cb5b146102455761012c565b806301ffc9a7146101315780630c32353814610161578063144fa6d71461017f578063248a9ca31461019b5780632f2ff15d146101cb575b600080fd5b61014b600480360381019061014691906117a4565b6103bd565b60405161015891906117ec565b60405180910390f35b610169610437565b6040516101769190611820565b60405180910390f35b610199600480360381019061019491906118ab565b61045b565b005b6101b560048036038101906101b09190611904565b6104a7565b6040516101c29190611820565b60405180910390f35b6101e560048036038101906101e0919061195d565b6104c7565b005b61020160048036038101906101fc919061195d565b6104e8565b005b61021d600480360381019061021891906119c9565b61056b565b005b610227610590565b005b610243600480360381019061023e9190611a2c565b6105a4565b005b61024d610791565b60405161025a9190611a7b565b60405180910390f35b61027d60048036038101906102789190611a96565b6107ba565b60405161028a9190611a7b565b60405180910390f35b6102ad60048036038101906102a8919061195d565b6107e9565b6040516102ba91906117ec565b60405180910390f35b6102cb610854565b6040516102d89190611820565b60405180910390f35b6102fb60048036038101906102f69190611ad6565b61085b565b005b61030561096a565b6040516103129190611b12565b60405180910390f35b610323610970565b60405161033091906117ec565b60405180910390f35b610353600480360381019061034e9190611904565b610983565b6040516103609190611b12565b60405180910390f35b610383600480360381019061037e919061195d565b6109a7565b005b61039f600480360381019061039a9190611ad6565b6109c8565b005b6103bb60048036038101906103b69190611b2d565b6109da565b005b60007f5a05180f000000000000000000000000000000000000000000000000000000007bffffffffffffffffffffffffffffffffffffffffffffffffffffffff1916827bffffffffffffffffffffffffffffffffffffffffffffffffffffffff19161480610430575061042f82610a5d565b5b9050919050565b7fdf2240f864b530da5c66b8dbd7ae68e2142b21c7d9467b754683c4fe46a7c77281565b610463610ad7565b80600360006101000a81548173ffffffffffffffffffffffffffffffffffffffff021916908373ffffffffffffffffffffffffffffffffffffffff16021790555050565b600060016000838152602001908152602001600020600101549050919050565b6104d0826104a7565b6104d981610b55565b6104e38383610b69565b505050565b6104f0610b9d565b73ffffffffffffffffffffffffffffffffffffffff168173ffffffffffffffffffffffffffffffffffffffff161461055d576040517f08c379a000000000000000000000000000000000000000000000000000000000815260040161055490611bdd565b60405180910390fd5b6105678282610ba5565b5050565b610573610ad7565b80600560006101000a81548160ff02191690831515021790555050565b610598610ad7565b6105a26000610bd9565b565b6105ac610b9d565b73ffffffffffffffffffffffffffffffffffffffff166105ca610791565b73ffffffffffffffffffffffffffffffffffffffff16148061061957506106187fdf2240f864b530da5c66b8dbd7ae68e2142b21c7d9467b754683c4fe46a7c772610613610b9d565b6107e9565b5b610658576040517f08c379a000000000000000000000000000000000000000000000000000000000815260040161064f90611c49565b60405180910390fd5b600560009054906101000a900460ff166106a7576040517f08c379a000000000000000000000000000000000000000000000000000000000815260040161069e90611cb5565b60405180910390fd5b6004548211156106ec576040517f08c379a00000000000000000000000000000000000000000000000000000000081526004016106e390611d21565b60405180910390fd5b600360009054906101000a900473ffffffffffffffffffffffffffffffffffffffff1673ffffffffffffffffffffffffffffffffffffffff1663a9059cbb82846040518363ffffffff1660e01b8152600401610749929190611d41565b6020604051808303816000875af1158015610768573d6000803e3d6000fd5b505050506040513d601f19601f8201168201806040525081019061078c9190611d7f565b505050565b60008060009054906101000a900473ffffffffffffffffffffffffffffffffffffffff16905090565b60006107e18260026000868152602001908152602001600020610c9d90919063ffffffff16565b905092915050565b60006001600084815260200190815260200160002060000160008373ffffffffffffffffffffffffffffffffffffffff1673ffffffffffffffffffffffffffffffffffffffff16815260200190815260200160002060009054906101000a900460ff16905092915050565b6000801b81565b80600360009054906101000a900473ffffffffffffffffffffffffffffffffffffffff1673ffffffffffffffffffffffffffffffffffffffff166370a08231336040518263ffffffff1660e01b81526004016108b79190611a7b565b602060405180830381865afa1580156108d4573d6000803e3d6000fd5b505050506040513d601f19601f820116820180604052508101906108f89190611dc1565b1015610939576040517f08c379a000000000000000000000000000000000000000000000000000000000815260040161093090611e3a565b60405180910390fd5b610967600360009054906101000a900473ffffffffffffffffffffffffffffffffffffffff16333084610cb7565b50565b60045481565b600560009054906101000a900460ff1681565b60006109a060026000848152602001908152602001600020610d40565b9050919050565b6109b0826104a7565b6109b981610b55565b6109c38383610ba5565b505050565b6109d0610ad7565b8060048190555050565b6109e2610ad7565b600073ffffffffffffffffffffffffffffffffffffffff168173ffffffffffffffffffffffffffffffffffffffff1603610a51576040517f08c379a0000000000000000000000000000000000000000000000000000000008152600401610a4890611ecc565b60405180910390fd5b610a5a81610bd9565b50565b60007f7965db0b000000000000000000000000000000000000000000000000000000007bffffffffffffffffffffffffffffffffffffffffffffffffffffffff1916827bffffffffffffffffffffffffffffffffffffffffffffffffffffffff19161480610ad05750610acf82610d55565b5b9050919050565b610adf610b9d565b73ffffffffffffffffffffffffffffffffffffffff16610afd610791565b73ffffffffffffffffffffffffffffffffffffffff1614610b53576040517f08c379a0000000000000000000000000000000000000000000000000000000008152600401610b4a90611f38565b60405180910390fd5b565b610b6681610b61610b9d565b610dbf565b50565b610b738282610e44565b610b988160026000858152602001908152602001600020610f2490919063ffffffff16565b505050565b600033905090565b610baf8282610f54565b610bd4816002600085815260200190815260200160002061103690919063ffffffff16565b505050565b60008060009054906101000a900473ffffffffffffffffffffffffffffffffffffffff169050816000806101000a81548173ffffffffffffffffffffffffffffffffffffffff021916908373ffffffffffffffffffffffffffffffffffffffff1602179055508173ffffffffffffffffffffffffffffffffffffffff168173ffffffffffffffffffffffffffffffffffffffff167f8be0079c531659141344cd1fd0a4f28419497f9722a3daafe3b4186f6b6457e060405160405180910390a35050565b6000610cac8360000183611066565b60001c905092915050565b610d3a846323b872dd60e01b858585604051602401610cd893929190611f58565b604051602081830303815290604052907bffffffffffffffffffffffffffffffffffffffffffffffffffffffff19166020820180517bffffffffffffffffffffffffffffffffffffffffffffffffffffffff8381831617835250505050611091565b50505050565b6000610d4e82600001611159565b9050919050565b60007f01ffc9a7000000000000000000000000000000000000000000000000000000007bffffffffffffffffffffffffffffffffffffffffffffffffffffffff1916827bffffffffffffffffffffffffffffffffffffffffffffffffffffffff1916149050919050565b610dc982826107e9565b610e4057610dd68161116a565b610de48360001c6020611197565b604051602001610df5929190612098565b6040516020818303038152906040526040517f08c379a0000000000000000000000000000000000000000000000000000000008152600401610e37919061211c565b60405180910390fd5b5050565b610e4e82826107e9565b610f2057600180600084815260200190815260200160002060000160008373ffffffffffffffffffffffffffffffffffffffff1673ffffffffffffffffffffffffffffffffffffffff16815260200190815260200160002060006101000a81548160ff021916908315150217905550610ec5610b9d565b73ffffffffffffffffffffffffffffffffffffffff168173ffffffffffffffffffffffffffffffffffffffff16837f2f8788117e7eff1d82e926ec794901d17c78024a50270940304540a733656f0d60405160405180910390a45b5050565b6000610f4c836000018373ffffffffffffffffffffffffffffffffffffffff1660001b6113d3565b905092915050565b610f5e82826107e9565b156110325760006001600084815260200190815260200160002060000160008373ffffffffffffffffffffffffffffffffffffffff1673ffffffffffffffffffffffffffffffffffffffff16815260200190815260200160002060006101000a81548160ff021916908315150217905550610fd7610b9d565b73ffffffffffffffffffffffffffffffffffffffff168173ffffffffffffffffffffffffffffffffffffffff16837ff6391f5c32d9c69d2a47ea670b442974b53935d1edc7fd64eb21e047a839171b60405160405180910390a45b5050565b600061105e836000018373ffffffffffffffffffffffffffffffffffffffff1660001b611443565b905092915050565b600082600001828154811061107e5761107d61213e565b5b9060005260206000200154905092915050565b60006110f3826040518060400160405280602081526020017f5361666545524332303a206c6f772d6c6576656c2063616c6c206661696c65648152508573ffffffffffffffffffffffffffffffffffffffff166115579092919063ffffffff16565b90506000815114806111155750808060200190518101906111149190611d7f565b5b611154576040517f08c379a000000000000000000000000000000000000000000000000000000000815260040161114b906121df565b60405180910390fd5b505050565b600081600001805490509050919050565b60606111908273ffffffffffffffffffffffffffffffffffffffff16601460ff16611197565b9050919050565b6060600060028360026111aa919061222e565b6111b49190612270565b67ffffffffffffffff8111156111cd576111cc6122a4565b5b6040519080825280601f01601f1916602001820160405280156111ff5781602001600182028036833780820191505090505b5090507f3000000000000000000000000000000000000000000000000000000000000000816000815181106112375761123661213e565b5b60200101907effffffffffffffffffffffffffffffffffffffffffffffffffffffffffffff1916908160001a9053507f78000000000000000000000000000000000000000000000000000000000000008160018151811061129b5761129a61213e565b5b60200101907effffffffffffffffffffffffffffffffffffffffffffffffffffffffffffff1916908160001a905350600060018460026112db919061222e565b6112e59190612270565b90505b6001811115611385577f3031323334353637383961626364656600000000000000000000000000000000600f8616601081106113275761132661213e565b5b1a60f81b82828151811061133e5761133d61213e565b5b60200101907effffffffffffffffffffffffffffffffffffffffffffffffffffffffffffff1916908160001a905350600485901c94508061137e906122d3565b90506112e8565b50600084146113c9576040517f08c379a00000000000000000000000000000000000000000000000000000000081526004016113c090612348565b60405180910390fd5b8091505092915050565b60006113df838361156f565b61143857826000018290806001815401808255809150506001900390600052602060002001600090919091909150558260000180549050836001016000848152602001908152602001600020819055506001905061143d565b600090505b92915050565b6000808360010160008481526020019081526020016000205490506000811461154b5760006001826114759190612368565b905060006001866000018054905061148d9190612368565b90508181146114fc5760008660000182815481106114ae576114ad61213e565b5b90600052602060002001549050808760000184815481106114d2576114d161213e565b5b90600052602060002001819055508387600101600083815260200190815260200160002081905550505b856000018054806115105761150f61239c565b5b600190038181906000526020600020016000905590558560010160008681526020019081526020016000206000905560019350505050611551565b60009150505b92915050565b60606115668484600085611592565b90509392505050565b600080836001016000848152602001908152602001600020541415905092915050565b6060824710156115d7576040517f08c379a00000000000000000000000000000000000000000000000000000000081526004016115ce9061243d565b60405180910390fd5b6000808673ffffffffffffffffffffffffffffffffffffffff16858760405161160091906124a4565b60006040518083038185875af1925050503d806000811461163d576040519150601f19603f3d011682016040523d82523d6000602084013e611642565b606091505b50915091506116538783838761165f565b92505050949350505050565b606083156116c15760008351036116b957611679856116d4565b6116b8576040517f08c379a00000000000000000000000000000000000000000000000000000000081526004016116af90612507565b60405180910390fd5b5b8290506116cc565b6116cb83836116f7565b5b949350505050565b6000808273ffffffffffffffffffffffffffffffffffffffff163b119050919050565b60008251111561170a5781518083602001fd5b806040517f08c379a000000000000000000000000000000000000000000000000000000000815260040161173e919061211c565b60405180910390fd5b600080fd5b60007fffffffff0000000000000000000000000000000000000000000000000000000082169050919050565b6117818161174c565b811461178c57600080fd5b50565b60008135905061179e81611778565b92915050565b6000602082840312156117ba576117b9611747565b5b60006117c88482850161178f565b91505092915050565b60008115159050919050565b6117e6816117d1565b82525050565b600060208201905061180160008301846117dd565b92915050565b6000819050919050565b61181a81611807565b82525050565b60006020820190506118356000830184611811565b92915050565b600073ffffffffffffffffffffffffffffffffffffffff82169050919050565b60006118668261183b565b9050919050565b60006118788261185b565b9050919050565b6118888161186d565b811461189357600080fd5b50565b6000813590506118a58161187f565b92915050565b6000602082840312156118c1576118c0611747565b5b60006118cf84828501611896565b91505092915050565b6118e181611807565b81146118ec57600080fd5b50565b6000813590506118fe816118d8565b92915050565b60006020828403121561191a57611919611747565b5b6000611928848285016118ef565b91505092915050565b61193a8161185b565b811461194557600080fd5b50565b60008135905061195781611931565b92915050565b6000806040838503121561197457611973611747565b5b6000611982858286016118ef565b925050602061199385828601611948565b9150509250929050565b6119a6816117d1565b81146119b157600080fd5b50565b6000813590506119c38161199d565b92915050565b6000602082840312156119df576119de611747565b5b60006119ed848285016119b4565b91505092915050565b6000819050919050565b611a09816119f6565b8114611a1457600080fd5b50565b600081359050611a2681611a00565b92915050565b60008060408385031215611a4357611a42611747565b5b6000611a5185828601611a17565b9250506020611a6285828601611948565b9150509250929050565b611a758161185b565b82525050565b6000602082019050611a906000830184611a6c565b92915050565b60008060408385031215611aad57611aac611747565b5b6000611abb858286016118ef565b9250506020611acc85828601611a17565b9150509250929050565b600060208284031215611aec57611aeb611747565b5b6000611afa84828501611a17565b91505092915050565b611b0c816119f6565b82525050565b6000602082019050611b276000830184611b03565b92915050565b600060208284031215611b4357611b42611747565b5b6000611b5184828501611948565b91505092915050565b600082825260208201905092915050565b7f416363657373436f6e74726f6c3a2063616e206f6e6c792072656e6f756e636560008201527f20726f6c657320666f722073656c660000000000000000000000000000000000602082015250565b6000611bc7602f83611b5a565b9150611bd282611b6b565b604082019050919050565b60006020820190508181036000830152611bf681611bba565b9050919050565b7f43616c6c6572206973206e6f7420612077697468647261776572000000000000600082015250565b6000611c33601a83611b5a565b9150611c3e82611bfd565b602082019050919050565b60006020820190508181036000830152611c6281611c26565b9050919050565b7f5769746864726177206973206e6f7420617661696c61626c6500000000000000600082015250565b6000611c9f601983611b5a565b9150611caa82611c69565b602082019050919050565b60006020820190508181036000830152611cce81611c92565b9050919050565b7f4578656564206d6178696d756d20616d6f756e74000000000000000000000000600082015250565b6000611d0b601483611b5a565b9150611d1682611cd5565b602082019050919050565b60006020820190508181036000830152611d3a81611cfe565b9050919050565b6000604082019050611d566000830185611a6c565b611d636020830184611b03565b9392505050565b600081519050611d798161199d565b92915050565b600060208284031215611d9557611d94611747565b5b6000611da384828501611d6a565b91505092915050565b600081519050611dbb81611a00565b92915050565b600060208284031215611dd757611dd6611747565b5b6000611de584828501611dac565b91505092915050565b7f496e73756666696369656e74206163636f756e742062616c616e636500000000600082015250565b6000611e24601c83611b5a565b9150611e2f82611dee565b602082019050919050565b60006020820190508181036000830152611e5381611e17565b9050919050565b7f4f776e61626c653a206e6577206f776e657220697320746865207a65726f206160008201527f6464726573730000000000000000000000000000000000000000000000000000602082015250565b6000611eb6602683611b5a565b9150611ec182611e5a565b604082019050919050565b60006020820190508181036000830152611ee581611ea9565b9050919050565b7f4f776e61626c653a2063616c6c6572206973206e6f7420746865206f776e6572600082015250565b6000611f22602083611b5a565b9150611f2d82611eec565b602082019050919050565b60006020820190508181036000830152611f5181611f15565b9050919050565b6000606082019050611f6d6000830186611a6c565b611f7a6020830185611a6c565b611f876040830184611b03565b949350505050565b600081905092915050565b7f416363657373436f6e74726f6c3a206163636f756e7420000000000000000000600082015250565b6000611fd0601783611f8f565b9150611fdb82611f9a565b601782019050919050565b600081519050919050565b60005b8381101561200f578082015181840152602081019050611ff4565b60008484015250505050565b600061202682611fe6565b6120308185611f8f565b9350612040818560208601611ff1565b80840191505092915050565b7f206973206d697373696e6720726f6c6520000000000000000000000000000000600082015250565b6000612082601183611f8f565b915061208d8261204c565b601182019050919050565b60006120a382611fc3565b91506120af828561201b565b91506120ba82612075565b91506120c6828461201b565b91508190509392505050565b6000601f19601f8301169050919050565b60006120ee82611fe6565b6120f88185611b5a565b9350612108818560208601611ff1565b612111816120d2565b840191505092915050565b6000602082019050818103600083015261213681846120e3565b905092915050565b7f4e487b7100000000000000000000000000000000000000000000000000000000600052603260045260246000fd5b7f5361666545524332303a204552433230206f7065726174696f6e20646964206e60008201527f6f74207375636365656400000000000000000000000000000000000000000000602082015250565b60006121c9602a83611b5a565b91506121d48261216d565b604082019050919050565b600060208201905081810360008301526121f8816121bc565b9050919050565b7f4e487b7100000000000000000000000000000000000000000000000000000000600052601160045260246000fd5b6000612239826119f6565b9150612244836119f6565b9250828202612252816119f6565b91508282048414831517612269576122686121ff565b5b5092915050565b600061227b826119f6565b9150612286836119f6565b925082820190508082111561229e5761229d6121ff565b5b92915050565b7f4e487b7100000000000000000000000000000000000000000000000000000000600052604160045260246000fd5b60006122de826119f6565b9150600082036122f1576122f06121ff565b5b600182039050919050565b7f537472696e67733a20686578206c656e67746820696e73756666696369656e74600082015250565b6000612332602083611b5a565b915061233d826122fc565b602082019050919050565b6000602082019050818103600083015261236181612325565b9050919050565b6000612373826119f6565b915061237e836119f6565b9250828203905081811115612396576123956121ff565b5b92915050565b7f4e487b7100000000000000000000000000000000000000000000000000000000600052603160045260246000fd5b7f416464726573733a20696e73756666696369656e742062616c616e636520666f60008201527f722063616c6c0000000000000000000000000000000000000000000000000000602082015250565b6000612427602683611b5a565b9150612432826123cb565b604082019050919050565b600060208201905081810360008301526124568161241a565b9050919050565b600081519050919050565b600081905092915050565b600061247e8261245d565b6124888185612468565b9350612498818560208601611ff1565b80840191505092915050565b60006124b08284612473565b915081905092915050565b7f416464726573733a2063616c6c20746f206e6f6e2d636f6e7472616374000000600082015250565b60006124f1601d83611b5a565b91506124fc826124bb565b602082019050919050565b60006020820190508181036000830152612520816124e4565b905091905056fea2646970667358221220896c29561b165b427ed3e8a42a9cc89d68e810ce21000db5816ccf2b400bee4464736f6c63430008130033",
  "linkReferences": {},
  "deployedLinkReferences": {}
}