{
  "_format": "hh-sol-artifact-1",
  "contractName": "Auction",
  "sourceName": "contracts/Auction.sol",
  "abi": [
    {
      "inputs": [
        {
          "internalType": "contract IERC20",
          "name": "_token",
          "type": "address"
        },
        {
          "internalType": "contract IERC721",
          "name": "_nft",
          "type": "address"
        }
      ],
      "stateMutability": "nonpayable",
      "type": "constructor"
    },
    {
      "anonymous": false,
      "inputs": [
        {
          "indexed": true,
          "internalType": "address",
          "name": "previousOwner",
          "type": "address"
        },
        {
          "indexed": true,
          "internalType": "address",
          "name": "newOwner",
          "type": "address"
        }
      ],
      "name": "OwnershipTransferred",
      "type": "event"
    },
    {
      "inputs": [],
      "name": "AUCTION_SERVICE_FEE_RATE",
      "outputs": [
        {
          "internalType": "uint256",
          "name": "",
          "type": "uint256"
        }
      ],
      "stateMutability": "view",
      "type": "function"
    },
    {
      "inputs": [],
      "name": "MINIMUM_BID_RATE",
      "outputs": [
        {
          "internalType": "uint256",
          "name": "",
          "type": "uint256"
        }
      ],
      "stateMutability": "view",
      "type": "function"
    },
    {
      "inputs": [
        {
          "internalType": "uint256",
          "name": "_auctionId",
          "type": "uint256"
        }
      ],
      "name": "cancelAuction",
      "outputs": [],
      "stateMutability": "nonpayable",
      "type": "function"
    },
    {
      "inputs": [
        {
          "internalType": "uint256",
          "name": "_tokenId",
          "type": "uint256"
        },
        {
          "internalType": "uint256",
          "name": "_initialPrice",
          "type": "uint256"
        },
        {
          "internalType": "uint256",
          "name": "_startTime",
          "type": "uint256"
        },
        {
          "internalType": "uint256",
          "name": "_endTime",
          "type": "uint256"
        }
      ],
      "name": "createAuction",
      "outputs": [],
      "stateMutability": "nonpayable",
      "type": "function"
    },
    {
      "inputs": [
        {
          "internalType": "uint256",
          "name": "_auctionId",
          "type": "uint256"
        }
      ],
      "name": "finishAuction",
      "outputs": [],
      "stateMutability": "nonpayable",
      "type": "function"
    },
    {
      "inputs": [
        {
          "internalType": "uint256",
          "name": "_auctionId",
          "type": "uint256"
        }
      ],
      "name": "getAuction",
      "outputs": [
        {
          "components": [
            {
              "internalType": "address",
              "name": "auctioneer",
              "type": "address"
            },
            {
              "internalType": "uint256",
              "name": "_tokenId",
              "type": "uint256"
            },
            {
              "internalType": "uint256",
              "name": "initialPrice",
              "type": "uint256"
            },
            {
              "internalType": "address",
              "name": "previousBidder",
              "type": "address"
            },
            {
              "internalType": "uint256",
              "name": "lastBid",
              "type": "uint256"
            },
            {
              "internalType": "address",
              "name": "lastBidder",
              "type": "address"
            },
            {
              "internalType": "uint256",
              "name": "startTime",
              "type": "uint256"
            },
            {
              "internalType": "uint256",
              "name": "endTime",
              "type": "uint256"
            },
            {
              "internalType": "bool",
              "name": "completed",
              "type": "bool"
            },
            {
              "internalType": "bool",
              "name": "active",
              "type": "bool"
            },
            {
              "internalType": "uint256",
              "name": "auctionId",
              "type": "uint256"
            }
          ],
          "internalType": "struct Auction.AuctionInfo",
          "name": "",
          "type": "tuple"
        }
      ],
      "stateMutability": "view",
      "type": "function"
    },
    {
      "inputs": [
        {
          "internalType": "bool",
          "name": "_active",
          "type": "bool"
        }
      ],
      "name": "getAuctionByStatus",
      "outputs": [
        {
          "components": [
            {
              "internalType": "address",
              "name": "auctioneer",
              "type": "address"
            },
            {
              "internalType": "uint256",
              "name": "_tokenId",
              "type": "uint256"
            },
            {
              "internalType": "uint256",
              "name": "initialPrice",
              "type": "uint256"
            },
            {
              "internalType": "address",
              "name": "previousBidder",
              "type": "address"
            },
            {
              "internalType": "uint256",
              "name": "lastBid",
              "type": "uint256"
            },
            {
              "internalType": "address",
              "name": "lastBidder",
              "type": "address"
            },
            {
              "internalType": "uint256",
              "name": "startTime",
              "type": "uint256"
            },
            {
              "internalType": "uint256",
              "name": "endTime",
              "type": "uint256"
            },
            {
              "internalType": "bool",
              "name": "completed",
              "type": "bool"
            },
            {
              "internalType": "bool",
              "name": "active",
              "type": "bool"
            },
            {
              "internalType": "uint256",
              "name": "auctionId",
              "type": "uint256"
            }
          ],
          "internalType": "struct Auction.AuctionInfo[]",
          "name": "",
          "type": "tuple[]"
        }
      ],
      "stateMutability": "view",
      "type": "function"
    },
    {
      "inputs": [
        {
          "internalType": "uint256",
          "name": "_auctionId",
          "type": "uint256"
        },
        {
          "internalType": "uint256",
          "name": "_bid",
          "type": "uint256"
        }
      ],
      "name": "joinAuction",
      "outputs": [],
      "stateMutability": "nonpayable",
      "type": "function"
    },
    {
      "inputs": [
        {
          "internalType": "address",
          "name": "",
          "type": "address"
        },
        {
          "internalType": "address",
          "name": "",
          "type": "address"
        },
        {
          "internalType": "uint256",
          "name": "",
          "type": "uint256"
        },
        {
          "internalType": "bytes",
          "name": "",
          "type": "bytes"
        }
      ],
      "name": "onERC721Received",
      "outputs": [
        {
          "internalType": "bytes4",
          "name": "",
          "type": "bytes4"
        }
      ],
      "stateMutability": "nonpayable",
      "type": "function"
    },
    {
      "inputs": [],
      "name": "owner",
      "outputs": [
        {
          "internalType": "address",
          "name": "",
          "type": "address"
        }
      ],
      "stateMutability": "view",
      "type": "function"
    },
    {
      "inputs": [],
      "name": "renounceOwnership",
      "outputs": [],
      "stateMutability": "nonpayable",
      "type": "function"
    },
    {
      "inputs": [
        {
          "internalType": "address",
          "name": "newOwner",
          "type": "address"
        }
      ],
      "name": "transferOwnership",
      "outputs": [],
      "stateMutability": "nonpayable",
      "type": "function"
    }
  ],
  "bytecode": "0x60806040523480156200001157600080fd5b50604051620039ed380380620039ed833981810160405281019062000037919062000270565b620000576200004b620000e160201b60201c565b620000e960201b60201c565b81600260006101000a81548173ffffffffffffffffffffffffffffffffffffffff021916908373ffffffffffffffffffffffffffffffffffffffff16021790555080600160006101000a81548173ffffffffffffffffffffffffffffffffffffffff021916908373ffffffffffffffffffffffffffffffffffffffff1602179055505050620002b7565b600033905090565b60008060009054906101000a900473ffffffffffffffffffffffffffffffffffffffff169050816000806101000a81548173ffffffffffffffffffffffffffffffffffffffff021916908373ffffffffffffffffffffffffffffffffffffffff1602179055508173ffffffffffffffffffffffffffffffffffffffff168173ffffffffffffffffffffffffffffffffffffffff167f8be0079c531659141344cd1fd0a4f28419497f9722a3daafe3b4186f6b6457e060405160405180910390a35050565b600080fd5b600073ffffffffffffffffffffffffffffffffffffffff82169050919050565b6000620001df82620001b2565b9050919050565b6000620001f382620001d2565b9050919050565b6200020581620001e6565b81146200021157600080fd5b50565b6000815190506200022581620001fa565b92915050565b60006200023882620001d2565b9050919050565b6200024a816200022b565b81146200025657600080fd5b50565b6000815190506200026a816200023f565b92915050565b600080604083850312156200028a5762000289620001ad565b5b60006200029a8582860162000214565b9250506020620002ad8582860162000259565b9150509250929050565b61372680620002c76000396000f3fe608060405234801561001057600080fd5b50600436106100b45760003560e01c806396b5a7551161007157806396b5a7551461017b578063bd0a079d14610197578063c00a6fb7146101b5578063cf266ed0146101e5578063f08e6e7614610201578063f2fde38b1461021d576100b4565b8063150b7a02146100b9578063431f21da146100e95780636aadfdd014610105578063715018a61461012357806378bd79351461012d5780638da5cb5b1461015d575b600080fd5b6100d360048036038101906100ce919061255a565b610239565b6040516100e09190612618565b60405180910390f35b61010360048036038101906100fe9190612633565b61024d565b005b61010d6107e0565b60405161011a91906126a9565b60405180910390f35b61012b6107e5565b005b610147600480360381019061014291906126c4565b6107f9565b604051610154919061280b565b60405180910390f35b6101656109aa565b6040516101729190612836565b60405180910390f35b610195600480360381019061019091906126c4565b6109d3565b005b61019f610eaf565b6040516101ac91906126a9565b60405180910390f35b6101cf60048036038101906101ca919061287d565b610eb4565b6040516101dc9190612a3b565b60405180910390f35b6101ff60048036038101906101fa91906126c4565b6111ad565b005b61021b60048036038101906102169190612a5d565b611681565b005b61023760048036038101906102329190612a9d565b611de1565b005b600063150b7a0260e01b9050949350505050565b81421115610290576040517f08c379a000000000000000000000000000000000000000000000000000000000815260040161028790612b27565b60405180910390fd5b8082106102d2576040517f08c379a00000000000000000000000000000000000000000000000000000000081526004016102c990612bb9565b60405180910390fd5b82600010610315576040517f08c379a000000000000000000000000000000000000000000000000000000000815260040161030c90612c4b565b60405180910390fd5b3373ffffffffffffffffffffffffffffffffffffffff16600160009054906101000a900473ffffffffffffffffffffffffffffffffffffffff1673ffffffffffffffffffffffffffffffffffffffff16636352211e866040518263ffffffff1660e01b815260040161038791906126a9565b602060405180830381865afa1580156103a4573d6000803e3d6000fd5b505050506040513d601f19601f820116820180604052508101906103c89190612c80565b73ffffffffffffffffffffffffffffffffffffffff161461041e576040517f08c379a000000000000000000000000000000000000000000000000000000000815260040161041590612cf9565b60405180910390fd5b3073ffffffffffffffffffffffffffffffffffffffff16600160009054906101000a900473ffffffffffffffffffffffffffffffffffffffff1673ffffffffffffffffffffffffffffffffffffffff1663081812fc866040518263ffffffff1660e01b815260040161049091906126a9565b602060405180830381865afa1580156104ad573d6000803e3d6000fd5b505050506040513d601f19601f820116820180604052508101906104d19190612c80565b73ffffffffffffffffffffffffffffffffffffffff1614610527576040517f08c379a000000000000000000000000000000000000000000000000000000000815260040161051e90612d8b565b60405180910390fd5b600160009054906101000a900473ffffffffffffffffffffffffffffffffffffffff1673ffffffffffffffffffffffffffffffffffffffff166342842e0e3330876040518463ffffffff1660e01b815260040161058693929190612dab565b600060405180830381600087803b1580156105a057600080fd5b505af11580156105b4573d6000803e3d6000fd5b5050505060006040518061016001604052803373ffffffffffffffffffffffffffffffffffffffff168152602001868152602001858152602001600073ffffffffffffffffffffffffffffffffffffffff168152602001858152602001600073ffffffffffffffffffffffffffffffffffffffff168152602001848152602001838152602001600015158152602001600115158152602001600380549050815250905060038190806001815401808255809150506001900390600052602060002090600a020160009091909190915060008201518160000160006101000a81548173ffffffffffffffffffffffffffffffffffffffff021916908373ffffffffffffffffffffffffffffffffffffffff160217905550602082015181600101556040820151816002015560608201518160030160006101000a81548173ffffffffffffffffffffffffffffffffffffffff021916908373ffffffffffffffffffffffffffffffffffffffff1602179055506080820151816004015560a08201518160050160006101000a81548173ffffffffffffffffffffffffffffffffffffffff021916908373ffffffffffffffffffffffffffffffffffffffff16021790555060c0820151816006015560e082015181600701556101008201518160080160006101000a81548160ff0219169083151502179055506101208201518160080160016101000a81548160ff021916908315150217905550610140820151816009015550505050505050565b606e81565b6107ed611e64565b6107f76000611ee2565b565b6108016122cc565b6003828154811061081557610814612de2565b5b90600052602060002090600a0201604051806101600160405290816000820160009054906101000a900473ffffffffffffffffffffffffffffffffffffffff1673ffffffffffffffffffffffffffffffffffffffff1673ffffffffffffffffffffffffffffffffffffffff16815260200160018201548152602001600282015481526020016003820160009054906101000a900473ffffffffffffffffffffffffffffffffffffffff1673ffffffffffffffffffffffffffffffffffffffff1673ffffffffffffffffffffffffffffffffffffffff168152602001600482015481526020016005820160009054906101000a900473ffffffffffffffffffffffffffffffffffffffff1673ffffffffffffffffffffffffffffffffffffffff1673ffffffffffffffffffffffffffffffffffffffff16815260200160068201548152602001600782015481526020016008820160009054906101000a900460ff161515151581526020016008820160019054906101000a900460ff161515151581526020016009820154815250509050919050565b60008060009054906101000a900473ffffffffffffffffffffffffffffffffffffffff16905090565b80600381815481106109e8576109e7612de2565b5b90600052602060002090600a020160000160009054906101000a900473ffffffffffffffffffffffffffffffffffffffff1673ffffffffffffffffffffffffffffffffffffffff163373ffffffffffffffffffffffffffffffffffffffff161480610a855750610a566109aa565b73ffffffffffffffffffffffffffffffffffffffff163373ffffffffffffffffffffffffffffffffffffffff16145b610ac4576040517f08c379a0000000000000000000000000000000000000000000000000000000008152600401610abb90612e83565b60405180910390fd5b6000151560038381548110610adc57610adb612de2565b5b90600052602060002090600a020160080160009054906101000a900460ff16151514610b3d576040517f08c379a0000000000000000000000000000000000000000000000000000000008152600401610b3490612eef565b60405180910390fd5b60038281548110610b5157610b50612de2565b5b90600052602060002090600a020160080160019054906101000a900460ff16610baf576040517f08c379a0000000000000000000000000000000000000000000000000000000008152600401610ba690612f5b565b60405180910390fd5b600160009054906101000a900473ffffffffffffffffffffffffffffffffffffffff1673ffffffffffffffffffffffffffffffffffffffff166342842e0e3060038581548110610c0257610c01612de2565b5b90600052602060002090600a020160000160009054906101000a900473ffffffffffffffffffffffffffffffffffffffff1660038681548110610c4857610c47612de2565b5b90600052602060002090600a0201600101546040518463ffffffff1660e01b8152600401610c7893929190612dab565b600060405180830381600087803b158015610c9257600080fd5b505af1158015610ca6573d6000803e3d6000fd5b50505050600073ffffffffffffffffffffffffffffffffffffffff1660038381548110610cd657610cd5612de2565b5b90600052602060002090600a020160050160009054906101000a900473ffffffffffffffffffffffffffffffffffffffff1673ffffffffffffffffffffffffffffffffffffffff1614610e2f57600260009054906101000a900473ffffffffffffffffffffffffffffffffffffffff1673ffffffffffffffffffffffffffffffffffffffff1663a9059cbb60038481548110610d7557610d74612de2565b5b90600052602060002090600a020160050160009054906101000a900473ffffffffffffffffffffffffffffffffffffffff1660038581548110610dbb57610dba612de2565b5b90600052602060002090600a0201600401546040518363ffffffff1660e01b8152600401610dea929190612f7b565b6020604051808303816000875af1158015610e09573d6000803e3d6000fd5b505050506040513d601f19601f82011682018060405250810190610e2d9190612fb9565b505b600160038381548110610e4557610e44612de2565b5b90600052602060002090600a020160080160006101000a81548160ff021916908315150217905550600060038381548110610e8357610e82612de2565b5b90600052602060002090600a020160080160016101000a81548160ff0219169083151502179055505050565b600381565b60606000805b600380549050811015610f265783151560038281548110610ede57610edd612de2565b5b90600052602060002090600a020160080160019054906101000a900460ff16151503610f13578180610f0f90613015565b9250505b8080610f1e90613015565b915050610eba565b5060008167ffffffffffffffff811115610f4357610f4261242f565b5b604051908082528060200260200182016040528015610f7c57816020015b610f696122cc565b815260200190600190039081610f615790505b5090506000805b6003805490508110156111a15785151560038281548110610fa757610fa6612de2565b5b90600052602060002090600a020160080160019054906101000a900460ff1615150361118e5760038181548110610fe157610fe0612de2565b5b90600052602060002090600a0201604051806101600160405290816000820160009054906101000a900473ffffffffffffffffffffffffffffffffffffffff1673ffffffffffffffffffffffffffffffffffffffff1673ffffffffffffffffffffffffffffffffffffffff16815260200160018201548152602001600282015481526020016003820160009054906101000a900473ffffffffffffffffffffffffffffffffffffffff1673ffffffffffffffffffffffffffffffffffffffff1673ffffffffffffffffffffffffffffffffffffffff168152602001600482015481526020016005820160009054906101000a900473ffffffffffffffffffffffffffffffffffffffff1673ffffffffffffffffffffffffffffffffffffffff1673ffffffffffffffffffffffffffffffffffffffff16815260200160068201548152602001600782015481526020016008820160009054906101000a900460ff161515151581526020016008820160019054906101000a900460ff1615151515815260200160098201548152505083838151811061118257611181612de2565b5b60200260200101819052505b808061119990613015565b915050610f83565b50819350505050919050565b80600381815481106111c2576111c1612de2565b5b90600052602060002090600a020160000160009054906101000a900473ffffffffffffffffffffffffffffffffffffffff1673ffffffffffffffffffffffffffffffffffffffff163373ffffffffffffffffffffffffffffffffffffffff16148061125f57506112306109aa565b73ffffffffffffffffffffffffffffffffffffffff163373ffffffffffffffffffffffffffffffffffffffff16145b61129e576040517f08c379a000000000000000000000000000000000000000000000000000000000815260040161129590612e83565b60405180910390fd5b60001515600383815481106112b6576112b5612de2565b5b90600052602060002090600a020160080160009054906101000a900460ff16151514611317576040517f08c379a000000000000000000000000000000000000000000000000000000000815260040161130e90612eef565b60405180910390fd5b600015156003838154811061132f5761132e612de2565b5b90600052602060002090600a020160080160019054906101000a900460ff16151514611390576040517f08c379a000000000000000000000000000000000000000000000000000000000815260040161138790612f5b565b60405180910390fd5b600160009054906101000a900473ffffffffffffffffffffffffffffffffffffffff1673ffffffffffffffffffffffffffffffffffffffff166342842e0e30600385815481106113e3576113e2612de2565b5b90600052602060002090600a020160050160009054906101000a900473ffffffffffffffffffffffffffffffffffffffff166003868154811061142957611428612de2565b5b90600052602060002090600a0201600101546040518463ffffffff1660e01b815260040161145993929190612dab565b600060405180830381600087803b15801561147357600080fd5b505af1158015611487573d6000803e3d6000fd5b505050506000600383815481106114a1576114a0612de2565b5b90600052602060002090600a02016004015490506000600384815481106114cb576114ca612de2565b5b90600052602060002090600a020160020154826114e8919061305d565b9050600060646003836114fb9190613091565b6115059190613102565b905060008184611515919061305d565b9050600260009054906101000a900473ffffffffffffffffffffffffffffffffffffffff1673ffffffffffffffffffffffffffffffffffffffff1663a9059cbb6003888154811061156957611568612de2565b5b90600052602060002090600a020160000160009054906101000a900473ffffffffffffffffffffffffffffffffffffffff16836040518363ffffffff1660e01b81526004016115b9929190612f7b565b6020604051808303816000875af11580156115d8573d6000803e3d6000fd5b505050506040513d601f19601f820116820180604052508101906115fc9190612fb9565b5060016003878154811061161357611612612de2565b5b90600052602060002090600a020160080160006101000a81548160ff02191690831515021790555060006003878154811061165157611650612de2565b5b90600052602060002090600a020160080160016101000a81548160ff021916908315150217905550505050505050565b60006003838154811061169757611696612de2565b5b90600052602060002090600a0201604051806101600160405290816000820160009054906101000a900473ffffffffffffffffffffffffffffffffffffffff1673ffffffffffffffffffffffffffffffffffffffff1673ffffffffffffffffffffffffffffffffffffffff16815260200160018201548152602001600282015481526020016003820160009054906101000a900473ffffffffffffffffffffffffffffffffffffffff1673ffffffffffffffffffffffffffffffffffffffff1673ffffffffffffffffffffffffffffffffffffffff168152602001600482015481526020016005820160009054906101000a900473ffffffffffffffffffffffffffffffffffffffff1673ffffffffffffffffffffffffffffffffffffffff1673ffffffffffffffffffffffffffffffffffffffff16815260200160068201548152602001600782015481526020016008820160009054906101000a900460ff161515151581526020016008820160019054906101000a900460ff1615151515815260200160098201548152505090508060c0015142101561186e576040517f08c379a00000000000000000000000000000000000000000000000000000000081526004016118659061317f565b60405180910390fd5b600015158161010001511515146118ba576040517f08c379a00000000000000000000000000000000000000000000000000000000081526004016118b190612eef565b60405180910390fd5b8061012001516118ff576040517f08c379a00000000000000000000000000000000000000000000000000000000081526004016118f690612f5b565b60405180910390fd5b60008073ffffffffffffffffffffffffffffffffffffffff168260a0015173ffffffffffffffffffffffffffffffffffffffff161461195a576064606e836080015161194b9190613091565b6119559190613102565b611960565b81604001515b9050828111156119a5576040517f08c379a000000000000000000000000000000000000000000000000000000000815260040161199c90613211565b60405180910390fd5b82600260009054906101000a900473ffffffffffffffffffffffffffffffffffffffff1673ffffffffffffffffffffffffffffffffffffffff166370a08231336040518263ffffffff1660e01b8152600401611a019190612836565b602060405180830381865afa158015611a1e573d6000803e3d6000fd5b505050506040513d601f19601f82011682018060405250810190611a429190613246565b1015611a83576040517f08c379a0000000000000000000000000000000000000000000000000000000008152600401611a7a906132bf565b60405180910390fd5b82600260009054906101000a900473ffffffffffffffffffffffffffffffffffffffff1673ffffffffffffffffffffffffffffffffffffffff1663dd62ed3e33306040518363ffffffff1660e01b8152600401611ae19291906132df565b602060405180830381865afa158015611afe573d6000803e3d6000fd5b505050506040513d601f19601f82011682018060405250810190611b229190613246565b1015611b63576040517f08c379a0000000000000000000000000000000000000000000000000000000008152600401611b5a906132bf565b60405180910390fd5b3373ffffffffffffffffffffffffffffffffffffffff16826000015173ffffffffffffffffffffffffffffffffffffffff1603611bd5576040517f08c379a0000000000000000000000000000000000000000000000000000000008152600401611bcc90613354565b60405180910390fd5b611c03600260009054906101000a900473ffffffffffffffffffffffffffffffffffffffff16333086611fa6565b600073ffffffffffffffffffffffffffffffffffffffff168260a0015173ffffffffffffffffffffffffffffffffffffffff1614611ce557600260009054906101000a900473ffffffffffffffffffffffffffffffffffffffff1673ffffffffffffffffffffffffffffffffffffffff1663a9059cbb8360a0015184608001516040518363ffffffff1660e01b8152600401611ca0929190612f7b565b6020604051808303816000875af1158015611cbf573d6000803e3d6000fd5b505050506040513d601f19601f82011682018060405250810190611ce39190612fb9565b505b8160a0015160038581548110611cfe57611cfd612de2565b5b90600052602060002090600a020160030160006101000a81548173ffffffffffffffffffffffffffffffffffffffff021916908373ffffffffffffffffffffffffffffffffffffffff1602179055503360038581548110611d6257611d61612de2565b5b90600052602060002090600a020160050160006101000a81548173ffffffffffffffffffffffffffffffffffffffff021916908373ffffffffffffffffffffffffffffffffffffffff1602179055508260038581548110611dc657611dc5612de2565b5b90600052602060002090600a02016004018190555050505050565b611de9611e64565b600073ffffffffffffffffffffffffffffffffffffffff168173ffffffffffffffffffffffffffffffffffffffff1603611e58576040517f08c379a0000000000000000000000000000000000000000000000000000000008152600401611e4f906133e6565b60405180910390fd5b611e6181611ee2565b50565b611e6c61202f565b73ffffffffffffffffffffffffffffffffffffffff16611e8a6109aa565b73ffffffffffffffffffffffffffffffffffffffff1614611ee0576040517f08c379a0000000000000000000000000000000000000000000000000000000008152600401611ed790613452565b60405180910390fd5b565b60008060009054906101000a900473ffffffffffffffffffffffffffffffffffffffff169050816000806101000a81548173ffffffffffffffffffffffffffffffffffffffff021916908373ffffffffffffffffffffffffffffffffffffffff1602179055508173ffffffffffffffffffffffffffffffffffffffff168173ffffffffffffffffffffffffffffffffffffffff167f8be0079c531659141344cd1fd0a4f28419497f9722a3daafe3b4186f6b6457e060405160405180910390a35050565b612029846323b872dd60e01b858585604051602401611fc793929190612dab565b604051602081830303815290604052907bffffffffffffffffffffffffffffffffffffffffffffffffffffffff19166020820180517bffffffffffffffffffffffffffffffffffffffffffffffffffffffff8381831617835250505050612037565b50505050565b600033905090565b6000612099826040518060400160405280602081526020017f5361666545524332303a206c6f772d6c6576656c2063616c6c206661696c65648152508573ffffffffffffffffffffffffffffffffffffffff166120ff9092919063ffffffff16565b90506000815114806120bb5750808060200190518101906120ba9190612fb9565b5b6120fa576040517f08c379a00000000000000000000000000000000000000000000000000000000081526004016120f1906134e4565b60405180910390fd5b505050565b606061210e8484600085612117565b90509392505050565b60608247101561215c576040517f08c379a000000000000000000000000000000000000000000000000000000000815260040161215390613576565b60405180910390fd5b6000808673ffffffffffffffffffffffffffffffffffffffff1685876040516121859190613607565b60006040518083038185875af1925050503d80600081146121c2576040519150601f19603f3d011682016040523d82523d6000602084013e6121c7565b606091505b50915091506121d8878383876121e4565b92505050949350505050565b6060831561224657600083510361223e576121fe85612259565b61223d576040517f08c379a00000000000000000000000000000000000000000000000000000000081526004016122349061366a565b60405180910390fd5b5b829050612251565b612250838361227c565b5b949350505050565b6000808273ffffffffffffffffffffffffffffffffffffffff163b119050919050565b60008251111561228f5781518083602001fd5b806040517f08c379a00000000000000000000000000000000000000000000000000000000081526004016122c391906136ce565b60405180910390fd5b604051806101600160405280600073ffffffffffffffffffffffffffffffffffffffff1681526020016000815260200160008152602001600073ffffffffffffffffffffffffffffffffffffffff16815260200160008152602001600073ffffffffffffffffffffffffffffffffffffffff1681526020016000815260200160008152602001600015158152602001600015158152602001600081525090565b6000604051905090565b600080fd5b600080fd5b600073ffffffffffffffffffffffffffffffffffffffff82169050919050565b60006123ab82612380565b9050919050565b6123bb816123a0565b81146123c657600080fd5b50565b6000813590506123d8816123b2565b92915050565b6000819050919050565b6123f1816123de565b81146123fc57600080fd5b50565b60008135905061240e816123e8565b92915050565b600080fd5b600080fd5b6000601f19601f8301169050919050565b7f4e487b7100000000000000000000000000000000000000000000000000000000600052604160045260246000fd5b6124678261241e565b810181811067ffffffffffffffff821117156124865761248561242f565b5b80604052505050565b600061249961236c565b90506124a5828261245e565b919050565b600067ffffffffffffffff8211156124c5576124c461242f565b5b6124ce8261241e565b9050602081019050919050565b82818337600083830152505050565b60006124fd6124f8846124aa565b61248f565b90508281526020810184848401111561251957612518612419565b5b6125248482856124db565b509392505050565b600082601f83011261254157612540612414565b5b81356125518482602086016124ea565b91505092915050565b6000806000806080858703121561257457612573612376565b5b6000612582878288016123c9565b9450506020612593878288016123c9565b93505060406125a4878288016123ff565b925050606085013567ffffffffffffffff8111156125c5576125c461237b565b5b6125d18782880161252c565b91505092959194509250565b60007fffffffff0000000000000000000000000000000000000000000000000000000082169050919050565b612612816125dd565b82525050565b600060208201905061262d6000830184612609565b92915050565b6000806000806080858703121561264d5761264c612376565b5b600061265b878288016123ff565b945050602061266c878288016123ff565b935050604061267d878288016123ff565b925050606061268e878288016123ff565b91505092959194509250565b6126a3816123de565b82525050565b60006020820190506126be600083018461269a565b92915050565b6000602082840312156126da576126d9612376565b5b60006126e8848285016123ff565b91505092915050565b6126fa816123a0565b82525050565b612709816123de565b82525050565b60008115159050919050565b6127248161270f565b82525050565b6101608201600082015161274160008501826126f1565b5060208201516127546020850182612700565b5060408201516127676040850182612700565b50606082015161277a60608501826126f1565b50608082015161278d6080850182612700565b5060a08201516127a060a08501826126f1565b5060c08201516127b360c0850182612700565b5060e08201516127c660e0850182612700565b506101008201516127db61010085018261271b565b506101208201516127f061012085018261271b565b50610140820151612805610140850182612700565b50505050565b600061016082019050612821600083018461272a565b92915050565b612830816123a0565b82525050565b600060208201905061284b6000830184612827565b92915050565b61285a8161270f565b811461286557600080fd5b50565b60008135905061287781612851565b92915050565b60006020828403121561289357612892612376565b5b60006128a184828501612868565b91505092915050565b600081519050919050565b600082825260208201905092915050565b6000819050602082019050919050565b610160820160008201516128ed60008501826126f1565b5060208201516129006020850182612700565b5060408201516129136040850182612700565b50606082015161292660608501826126f1565b5060808201516129396080850182612700565b5060a082015161294c60a08501826126f1565b5060c082015161295f60c0850182612700565b5060e082015161297260e0850182612700565b5061010082015161298761010085018261271b565b5061012082015161299c61012085018261271b565b506101408201516129b1610140850182612700565b50505050565b60006129c383836128d6565b6101608301905092915050565b6000602082019050919050565b60006129e8826128aa565b6129f281856128b5565b93506129fd836128c6565b8060005b83811015612a2e578151612a1588826129b7565b9750612a20836129d0565b925050600181019050612a01565b5085935050505092915050565b60006020820190508181036000830152612a5581846129dd565b905092915050565b60008060408385031215612a7457612a73612376565b5b6000612a82858286016123ff565b9250506020612a93858286016123ff565b9150509250929050565b600060208284031215612ab357612ab2612376565b5b6000612ac1848285016123c9565b91505092915050565b600082825260208201905092915050565b7f41756374696f6e2063616e206e6f742073746172740000000000000000000000600082015250565b6000612b11601583612aca565b9150612b1c82612adb565b602082019050919050565b60006020820190508181036000830152612b4081612b04565b9050919050565b7f41756374696f6e2063616e206e6f7420656e64206265666f726520697420737460008201527f6172747300000000000000000000000000000000000000000000000000000000602082015250565b6000612ba3602483612aca565b9150612bae82612b47565b604082019050919050565b60006020820190508181036000830152612bd281612b96565b9050919050565b7f496e697469616c207072696365206d757374206265206772656174657220746860008201527f616e203000000000000000000000000000000000000000000000000000000000602082015250565b6000612c35602483612aca565b9150612c4082612bd9565b604082019050919050565b60006020820190508181036000830152612c6481612c28565b9050919050565b600081519050612c7a816123b2565b92915050565b600060208284031215612c9657612c95612376565b5b6000612ca484828501612c6b565b91505092915050565b7f4d757374207374616b6520796f7572206f776e20746f6b656e00000000000000600082015250565b6000612ce3601983612aca565b9150612cee82612cad565b602082019050919050565b60006020820190508181036000830152612d1281612cd6565b9050919050565b7f5468697320636f6e7472616374206d75737420626520617070726f766564207460008201527f6f207472616e736665722074686520746f6b656e000000000000000000000000602082015250565b6000612d75603483612aca565b9150612d8082612d19565b604082019050919050565b60006020820190508181036000830152612da481612d68565b9050919050565b6000606082019050612dc06000830186612827565b612dcd6020830185612827565b612dda604083018461269a565b949350505050565b7f4e487b7100000000000000000000000000000000000000000000000000000000600052603260045260246000fd5b7f4f6e6c792061756374696f6e656572206f72206f776e65722063616e2070657260008201527f666f726d207468697320616374696f6e00000000000000000000000000000000602082015250565b6000612e6d603083612aca565b9150612e7882612e11565b604082019050919050565b60006020820190508181036000830152612e9c81612e60565b9050919050565b7f41756374696f6e20697320616c726561647920636f6d706c6574656400000000600082015250565b6000612ed9601c83612aca565b9150612ee482612ea3565b602082019050919050565b60006020820190508181036000830152612f0881612ecc565b9050919050565b7f41756374696f6e206973206e6f74206163746976650000000000000000000000600082015250565b6000612f45601583612aca565b9150612f5082612f0f565b602082019050919050565b60006020820190508181036000830152612f7481612f38565b9050919050565b6000604082019050612f906000830185612827565b612f9d602083018461269a565b9392505050565b600081519050612fb381612851565b92915050565b600060208284031215612fcf57612fce612376565b5b6000612fdd84828501612fa4565b91505092915050565b7f4e487b7100000000000000000000000000000000000000000000000000000000600052601160045260246000fd5b6000613020826123de565b91507fffffffffffffffffffffffffffffffffffffffffffffffffffffffffffffffff820361305257613051612fe6565b5b600182019050919050565b6000613068826123de565b9150613073836123de565b925082820390508181111561308b5761308a612fe6565b5b92915050565b600061309c826123de565b91506130a7836123de565b92508282026130b5816123de565b915082820484148315176130cc576130cb612fe6565b5b5092915050565b7f4e487b7100000000000000000000000000000000000000000000000000000000600052601260045260246000fd5b600061310d826123de565b9150613118836123de565b925082613128576131276130d3565b5b828204905092915050565b7f41756374696f6e20686173206e6f742073746172746564000000000000000000600082015250565b6000613169601783612aca565b915061317482613133565b602082019050919050565b600060208201905081810360008301526131988161315c565b9050919050565b7f426964207072696365206d7573742062652067726561746572207468616e207460008201527f6865206d696e696d756d20707269636500000000000000000000000000000000602082015250565b60006131fb603083612aca565b91506132068261319f565b604082019050919050565b6000602082019050818103600083015261322a816131ee565b9050919050565b600081519050613240816123e8565b92915050565b60006020828403121561325c5761325b612376565b5b600061326a84828501613231565b91505092915050565b7f496e73756666696369656e7420616c6c6f77616e636500000000000000000000600082015250565b60006132a9601683612aca565b91506132b482613273565b602082019050919050565b600060208201905081810360008301526132d88161329c565b9050919050565b60006040820190506132f46000830185612827565b6133016020830184612827565b9392505050565b7f43616e206e6f7420626964206f6e20796f7572206f776e2061756374696f6e00600082015250565b600061333e601f83612aca565b915061334982613308565b602082019050919050565b6000602082019050818103600083015261336d81613331565b9050919050565b7f4f776e61626c653a206e6577206f776e657220697320746865207a65726f206160008201527f6464726573730000000000000000000000000000000000000000000000000000602082015250565b60006133d0602683612aca565b91506133db82613374565b604082019050919050565b600060208201905081810360008301526133ff816133c3565b9050919050565b7f4f776e61626c653a2063616c6c6572206973206e6f7420746865206f776e6572600082015250565b600061343c602083612aca565b915061344782613406565b602082019050919050565b6000602082019050818103600083015261346b8161342f565b9050919050565b7f5361666545524332303a204552433230206f7065726174696f6e20646964206e60008201527f6f74207375636365656400000000000000000000000000000000000000000000602082015250565b60006134ce602a83612aca565b91506134d982613472565b604082019050919050565b600060208201905081810360008301526134fd816134c1565b9050919050565b7f416464726573733a20696e73756666696369656e742062616c616e636520666f60008201527f722063616c6c0000000000000000000000000000000000000000000000000000602082015250565b6000613560602683612aca565b915061356b82613504565b604082019050919050565b6000602082019050818103600083015261358f81613553565b9050919050565b600081519050919050565b600081905092915050565b60005b838110156135ca5780820151818401526020810190506135af565b60008484015250505050565b60006135e182613596565b6135eb81856135a1565b93506135fb8185602086016135ac565b80840191505092915050565b600061361382846135d6565b915081905092915050565b7f416464726573733a2063616c6c20746f206e6f6e2d636f6e7472616374000000600082015250565b6000613654601d83612aca565b915061365f8261361e565b602082019050919050565b6000602082019050818103600083015261368381613647565b9050919050565b600081519050919050565b60006136a08261368a565b6136aa8185612aca565b93506136ba8185602086016135ac565b6136c38161241e565b840191505092915050565b600060208201905081810360008301526136e88184613695565b90509291505056fea2646970667358221220ab9f5491404ef31f9a02724de3459088ee73f897b9beb8dca05d9c2c344bc7cc64736f6c63430008130033",
  "linkReferences": {},
  "deployedLinkReferences": {}
}