{
  "_format": "hh-sol-artifact-1",
  "contractName": "CardMarketplace",
  "sourceName": "contracts/Marketplace.sol",
  "abi": [
    {
      "inputs": [
        {
          "internalType": "contract IERC20",
          "name": "_token",
          "type": "address"
        },
        {
          "internalType": "contract IERC721Enumerable",
          "name": "_nft",
          "type": "address"
        }
      ],
      "stateMutability": "nonpayable",
      "type": "constructor"
    },
    {
      "anonymous": false,
      "inputs": [
        {
          "indexed": false,
          "internalType": "address",
          "name": "from",
          "type": "address"
        },
        {
          "indexed": false,
          "internalType": "uint256",
          "name": "_tokenId",
          "type": "uint256"
        },
        {
          "indexed": false,
          "internalType": "uint256",
          "name": "_price",
          "type": "uint256"
        }
      ],
      "name": "BuyNft",
      "type": "event"
    },
    {
      "anonymous": false,
      "inputs": [
        {
          "indexed": true,
          "internalType": "address",
          "name": "_from",
          "type": "address"
        },
        {
          "indexed": false,
          "internalType": "uint256",
          "name": "_tokenid",
          "type": "uint256"
        },
        {
          "indexed": false,
          "internalType": "uint256",
          "name": "_price",
          "type": "uint256"
        }
      ],
      "name": "ListNft",
      "type": "event"
    },
    {
      "anonymous": false,
      "inputs": [
        {
          "indexed": true,
          "internalType": "address",
          "name": "previousOwner",
          "type": "address"
        },
        {
          "indexed": true,
          "internalType": "address",
          "name": "newOwner",
          "type": "address"
        }
      ],
      "name": "OwnershipTransferred",
      "type": "event"
    },
    {
      "anonymous": false,
      "inputs": [
        {
          "indexed": false,
          "internalType": "contract IERC721Enumerable",
          "name": "_nft",
          "type": "address"
        }
      ],
      "name": "SetNft",
      "type": "event"
    },
    {
      "anonymous": false,
      "inputs": [
        {
          "indexed": false,
          "internalType": "uint256",
          "name": "_tax",
          "type": "uint256"
        }
      ],
      "name": "SetTax",
      "type": "event"
    },
    {
      "anonymous": false,
      "inputs": [
        {
          "indexed": false,
          "internalType": "contract IERC20",
          "name": "_token",
          "type": "address"
        }
      ],
      "name": "SetToken",
      "type": "event"
    },
    {
      "anonymous": false,
      "inputs": [
        {
          "indexed": true,
          "internalType": "address",
          "name": "_from",
          "type": "address"
        },
        {
          "indexed": false,
          "internalType": "uint256",
          "name": "_tokenId",
          "type": "uint256"
        }
      ],
      "name": "UnListNft",
      "type": "event"
    },
    {
      "anonymous": false,
      "inputs": [
        {
          "indexed": false,
          "internalType": "uint256",
          "name": "_tokenid",
          "type": "uint256"
        },
        {
          "indexed": false,
          "internalType": "uint256",
          "name": "_price",
          "type": "uint256"
        }
      ],
      "name": "UpdateListingNftPrice",
      "type": "event"
    },
    {
      "inputs": [
        {
          "internalType": "uint256",
          "name": "_tokenId",
          "type": "uint256"
        },
        {
          "internalType": "uint256",
          "name": "_price",
          "type": "uint256"
        }
      ],
      "name": "buyNft",
      "outputs": [],
      "stateMutability": "nonpayable",
      "type": "function"
    },
    {
      "inputs": [],
      "name": "getListedNft",
      "outputs": [
        {
          "components": [
            {
              "internalType": "address payable",
              "name": "author",
              "type": "address"
            },
            {
              "internalType": "uint256",
              "name": "price",
              "type": "uint256"
            },
            {
              "internalType": "uint256",
              "name": "tokenId",
              "type": "uint256"
            }
          ],
          "internalType": "struct CardMarketplace.ListDetail[]",
          "name": "",
          "type": "tuple[]"
        }
      ],
      "stateMutability": "view",
      "type": "function"
    },
    {
      "inputs": [
        {
          "internalType": "uint256",
          "name": "_tokenId",
          "type": "uint256"
        },
        {
          "internalType": "uint256",
          "name": "_price",
          "type": "uint256"
        }
      ],
      "name": "listNft",
      "outputs": [],
      "stateMutability": "nonpayable",
      "type": "function"
    },
    {
      "inputs": [
        {
          "internalType": "address",
          "name": "",
          "type": "address"
        },
        {
          "internalType": "address",
          "name": "",
          "type": "address"
        },
        {
          "internalType": "uint256",
          "name": "",
          "type": "uint256"
        },
        {
          "internalType": "bytes",
          "name": "",
          "type": "bytes"
        }
      ],
      "name": "onERC721Received",
      "outputs": [
        {
          "internalType": "bytes4",
          "name": "",
          "type": "bytes4"
        }
      ],
      "stateMutability": "nonpayable",
      "type": "function"
    },
    {
      "inputs": [],
      "name": "owner",
      "outputs": [
        {
          "internalType": "address",
          "name": "",
          "type": "address"
        }
      ],
      "stateMutability": "view",
      "type": "function"
    },
    {
      "inputs": [],
      "name": "renounceOwnership",
      "outputs": [],
      "stateMutability": "nonpayable",
      "type": "function"
    },
    {
      "inputs": [
        {
          "internalType": "contract IERC721Enumerable",
          "name": "_nft",
          "type": "address"
        }
      ],
      "name": "setNft",
      "outputs": [],
      "stateMutability": "nonpayable",
      "type": "function"
    },
    {
      "inputs": [
        {
          "internalType": "uint256",
          "name": "_tax",
          "type": "uint256"
        }
      ],
      "name": "setTax",
      "outputs": [],
      "stateMutability": "nonpayable",
      "type": "function"
    },
    {
      "inputs": [
        {
          "internalType": "contract IERC20",
          "name": "_token",
          "type": "address"
        }
      ],
      "name": "setToken",
      "outputs": [],
      "stateMutability": "nonpayable",
      "type": "function"
    },
    {
      "inputs": [
        {
          "internalType": "address",
          "name": "newOwner",
          "type": "address"
        }
      ],
      "name": "transferOwnership",
      "outputs": [],
      "stateMutability": "nonpayable",
      "type": "function"
    },
    {
      "inputs": [
        {
          "internalType": "uint256",
          "name": "_tokenId",
          "type": "uint256"
        }
      ],
      "name": "unListnft",
      "outputs": [],
      "stateMutability": "nonpayable",
      "type": "function"
    },
    {
      "inputs": [
        {
          "internalType": "uint256",
          "name": "_tokenId",
          "type": "uint256"
        },
        {
          "internalType": "uint256",
          "name": "_price",
          "type": "uint256"
        }
      ],
      "name": "updateListNftPrice",
      "outputs": [],
      "stateMutability": "nonpayable",
      "type": "function"
    },
    {
      "inputs": [],
      "name": "withdraw",
      "outputs": [],
      "stateMutability": "nonpayable",
      "type": "function"
    },
    {
      "inputs": [],
      "name": "withdrawERC20",
      "outputs": [],
      "stateMutability": "nonpayable",
      "type": "function"
    },
    {
      "inputs": [
        {
          "internalType": "uint256",
          "name": "amount",
          "type": "uint256"
        }
      ],
      "name": "withdrawToken",
      "outputs": [],
      "stateMutability": "nonpayable",
      "type": "function"
    }
  ],
  "bytecode": "0x6080604052600a6004553480156200001657600080fd5b506040516200303a3803806200303a83398181016040528101906200003c919062000275565b6200005c62000050620000e660201b60201c565b620000ee60201b60201c565b80600160006101000a81548173ffffffffffffffffffffffffffffffffffffffff021916908373ffffffffffffffffffffffffffffffffffffffff16021790555081600260006101000a81548173ffffffffffffffffffffffffffffffffffffffff021916908373ffffffffffffffffffffffffffffffffffffffff1602179055505050620002bc565b600033905090565b60008060009054906101000a900473ffffffffffffffffffffffffffffffffffffffff169050816000806101000a81548173ffffffffffffffffffffffffffffffffffffffff021916908373ffffffffffffffffffffffffffffffffffffffff1602179055508173ffffffffffffffffffffffffffffffffffffffff168173ffffffffffffffffffffffffffffffffffffffff167f8be0079c531659141344cd1fd0a4f28419497f9722a3daafe3b4186f6b6457e060405160405180910390a35050565b600080fd5b600073ffffffffffffffffffffffffffffffffffffffff82169050919050565b6000620001e482620001b7565b9050919050565b6000620001f882620001d7565b9050919050565b6200020a81620001eb565b81146200021657600080fd5b50565b6000815190506200022a81620001ff565b92915050565b60006200023d82620001d7565b9050919050565b6200024f8162000230565b81146200025b57600080fd5b50565b6000815190506200026f8162000244565b92915050565b600080604083850312156200028f576200028e620001b2565b5b60006200029f8582860162000219565b9250506020620002b2858286016200025e565b9150509250929050565b612d6e80620002cc6000396000f3fe608060405234801561001057600080fd5b50600436106100f55760003560e01c8063556f808411610097578063f2cb813f11610066578063f2cb813f14610210578063f2fde38b1461022c578063f3c1338714610248578063fe8723e114610264576100f5565b8063556f8084146101ae578063715018a6146101ca5780637a53fde6146101d45780638da5cb5b146101f2576100f5565b80632e5bb6ff116100d35780632e5bb6ff146101625780632ed6d5e81461017e5780633ccfd60b1461018857806350baa62214610192576100f5565b806302fb7272146100fa578063144fa6d714610116578063150b7a0214610132575b600080fd5b610114600480360381019061010f9190611b78565b610280565b005b610130600480360381019061012b9190611c28565b610485565b005b61014c60048036038101906101479190611dc7565b610508565b6040516101599190611e85565b60405180910390f35b61017c60048036038101906101779190611ea0565b61051c565b005b610186610565565b005b6101906106ab565b005b6101ac60048036038101906101a79190611ea0565b6106fc565b005b6101c860048036038101906101c39190611b78565b610886565b005b6101d2610cc0565b005b6101dc610cd4565b6040516101e99190611fee565b60405180910390f35b6101fa610f38565b604051610207919061201f565b60405180910390f35b61022a60048036038101906102259190611ea0565b610f61565b005b6102466004803603810190610241919061203a565b6111f0565b005b610262600480360381019061025d91906120a5565b611273565b005b61027e60048036038101906102799190611b78565b6112f6565b005b3073ffffffffffffffffffffffffffffffffffffffff16600160009054906101000a900473ffffffffffffffffffffffffffffffffffffffff1673ffffffffffffffffffffffffffffffffffffffff16636352211e846040518263ffffffff1660e01b81526004016102f291906120e1565b602060405180830381865afa15801561030f573d6000803e3d6000fd5b505050506040513d601f19601f820116820180604052508101906103339190612111565b73ffffffffffffffffffffffffffffffffffffffff1614610389576040517f08c379a00000000000000000000000000000000000000000000000000000000081526004016103809061219b565b60405180910390fd5b3373ffffffffffffffffffffffffffffffffffffffff166003600084815260200190815260200160002060000160009054906101000a900473ffffffffffffffffffffffffffffffffffffffff1673ffffffffffffffffffffffffffffffffffffffff161461042d576040517f08c379a00000000000000000000000000000000000000000000000000000000081526004016104249061222d565b60405180910390fd5b8060036000848152602001908152602001600020600101819055507fe2e86726ee93710d964ddf459bcdd12dca5ce2e7a8921c924502d11432faf109828260405161047992919061224d565b60405180910390a15050565b61048d61168f565b80600260006101000a81548173ffffffffffffffffffffffffffffffffffffffff021916908373ffffffffffffffffffffffffffffffffffffffff1602179055507fefc1fd16ea80a922086ee4e995739d59b025c1bcea6d1f67855747480c83214b816040516104fd91906122d5565b60405180910390a150565b600063150b7a0260e01b9050949350505050565b61052461168f565b806004819055507f9fa979502e438dac613eeda5e69bdaf59a326dc09969a480e1e19078b24e15d18160405161055a91906120e1565b60405180910390a150565b61056d61168f565b600260009054906101000a900473ffffffffffffffffffffffffffffffffffffffff1673ffffffffffffffffffffffffffffffffffffffff1663a9059cbb33600260009054906101000a900473ffffffffffffffffffffffffffffffffffffffff1673ffffffffffffffffffffffffffffffffffffffff166370a08231306040518263ffffffff1660e01b8152600401610607919061201f565b602060405180830381865afa158015610624573d6000803e3d6000fd5b505050506040513d601f19601f820116820180604052508101906106489190612305565b6040518363ffffffff1660e01b8152600401610665929190612332565b6020604051808303816000875af1158015610684573d6000803e3d6000fd5b505050506040513d601f19601f820116820180604052508101906106a89190612393565b50565b6106b361168f565b3373ffffffffffffffffffffffffffffffffffffffff166108fc479081150290604051600060405180830381858888f193505050501580156106f9573d6000803e3d6000fd5b50565b61070461168f565b80600260009054906101000a900473ffffffffffffffffffffffffffffffffffffffff1673ffffffffffffffffffffffffffffffffffffffff166370a08231306040518263ffffffff1660e01b8152600401610760919061201f565b602060405180830381865afa15801561077d573d6000803e3d6000fd5b505050506040513d601f19601f820116820180604052508101906107a19190612305565b10156107e2576040517f08c379a00000000000000000000000000000000000000000000000000000000081526004016107d99061240c565b60405180910390fd5b600260009054906101000a900473ffffffffffffffffffffffffffffffffffffffff1673ffffffffffffffffffffffffffffffffffffffff1663a9059cbb33836040518363ffffffff1660e01b815260040161083f929190612332565b6020604051808303816000875af115801561085e573d6000803e3d6000fd5b505050506040513d601f19601f820116820180604052508101906108829190612393565b5050565b80600260009054906101000a900473ffffffffffffffffffffffffffffffffffffffff1673ffffffffffffffffffffffffffffffffffffffff166370a08231336040518263ffffffff1660e01b81526004016108e2919061201f565b602060405180830381865afa1580156108ff573d6000803e3d6000fd5b505050506040513d601f19601f820116820180604052508101906109239190612305565b1015610964576040517f08c379a000000000000000000000000000000000000000000000000000000000815260040161095b90612478565b60405180910390fd5b3073ffffffffffffffffffffffffffffffffffffffff16600160009054906101000a900473ffffffffffffffffffffffffffffffffffffffff1673ffffffffffffffffffffffffffffffffffffffff16636352211e846040518263ffffffff1660e01b81526004016109d691906120e1565b602060405180830381865afa1580156109f3573d6000803e3d6000fd5b505050506040513d601f19601f82011682018060405250810190610a179190612111565b73ffffffffffffffffffffffffffffffffffffffff1614610a6d576040517f08c379a0000000000000000000000000000000000000000000000000000000008152600401610a649061250a565b60405180910390fd5b8060036000848152602001908152602001600020600101541115610ac6576040517f08c379a0000000000000000000000000000000000000000000000000000000008152600401610abd9061259c565b60405180910390fd5b610af4600260009054906101000a900473ffffffffffffffffffffffffffffffffffffffff1633308461170d565b600260009054906101000a900473ffffffffffffffffffffffffffffffffffffffff1673ffffffffffffffffffffffffffffffffffffffff1663a9059cbb6003600085815260200190815260200160002060000160009054906101000a900473ffffffffffffffffffffffffffffffffffffffff1660646004546064610b7a91906125eb565b85610b85919061261f565b610b8f9190612690565b6040518363ffffffff1660e01b8152600401610bac9291906126e2565b6020604051808303816000875af1158015610bcb573d6000803e3d6000fd5b505050506040513d601f19601f82011682018060405250810190610bef9190612393565b50600160009054906101000a900473ffffffffffffffffffffffffffffffffffffffff1673ffffffffffffffffffffffffffffffffffffffff166342842e0e3033856040518463ffffffff1660e01b8152600401610c4f9392919061270b565b600060405180830381600087803b158015610c6957600080fd5b505af1158015610c7d573d6000803e3d6000fd5b505050507f669ecffc6edf9fcaf33c78a7021fea7fcac42776b92ea815577dd56635774fe6338383604051610cb493929190612742565b60405180910390a15050565b610cc861168f565b610cd26000611796565b565b60606000600160009054906101000a900473ffffffffffffffffffffffffffffffffffffffff1673ffffffffffffffffffffffffffffffffffffffff166370a08231306040518263ffffffff1660e01b8152600401610d33919061201f565b602060405180830381865afa158015610d50573d6000803e3d6000fd5b505050506040513d601f19601f82011682018060405250810190610d749190612305565b905060008167ffffffffffffffff811115610d9257610d91611c9c565b5b604051908082528060200260200182016040528015610dcb57816020015b610db8611af7565b815260200190600190039081610db05790505b50905060005b82811015610f2f5760036000600160009054906101000a900473ffffffffffffffffffffffffffffffffffffffff1673ffffffffffffffffffffffffffffffffffffffff16632f745c5930856040518363ffffffff1660e01b8152600401610e3a929190612332565b602060405180830381865afa158015610e57573d6000803e3d6000fd5b505050506040513d601f19601f82011682018060405250810190610e7b9190612305565b81526020019081526020016000206040518060600160405290816000820160009054906101000a900473ffffffffffffffffffffffffffffffffffffffff1673ffffffffffffffffffffffffffffffffffffffff1673ffffffffffffffffffffffffffffffffffffffff16815260200160018201548152602001600282015481525050828281518110610f1157610f10612779565b5b60200260200101819052508080610f27906127a8565b915050610dd1565b50809250505090565b60008060009054906101000a900473ffffffffffffffffffffffffffffffffffffffff16905090565b3073ffffffffffffffffffffffffffffffffffffffff16600160009054906101000a900473ffffffffffffffffffffffffffffffffffffffff1673ffffffffffffffffffffffffffffffffffffffff16636352211e836040518263ffffffff1660e01b8152600401610fd391906120e1565b602060405180830381865afa158015610ff0573d6000803e3d6000fd5b505050506040513d601f19601f820116820180604052508101906110149190612111565b73ffffffffffffffffffffffffffffffffffffffff161461106a576040517f08c379a000000000000000000000000000000000000000000000000000000000815260040161106190612862565b60405180910390fd5b3373ffffffffffffffffffffffffffffffffffffffff166003600083815260200190815260200160002060000160009054906101000a900473ffffffffffffffffffffffffffffffffffffffff1673ffffffffffffffffffffffffffffffffffffffff161461110e576040517f08c379a0000000000000000000000000000000000000000000000000000000008152600401611105906128ce565b60405180910390fd5b600160009054906101000a900473ffffffffffffffffffffffffffffffffffffffff1673ffffffffffffffffffffffffffffffffffffffff166342842e0e3033846040518463ffffffff1660e01b815260040161116d9392919061270b565b600060405180830381600087803b15801561118757600080fd5b505af115801561119b573d6000803e3d6000fd5b505050503373ffffffffffffffffffffffffffffffffffffffff167f6e9e059261b131063857481dfffb2df058bcba64c3f7c167b05ce5264d2be019826040516111e591906120e1565b60405180910390a250565b6111f861168f565b600073ffffffffffffffffffffffffffffffffffffffff168173ffffffffffffffffffffffffffffffffffffffff1603611267576040517f08c379a000000000000000000000000000000000000000000000000000000000815260040161125e90612960565b60405180910390fd5b61127081611796565b50565b61127b61168f565b80600160006101000a81548173ffffffffffffffffffffffffffffffffffffffff021916908373ffffffffffffffffffffffffffffffffffffffff1602179055507f90c685638d36d35015d1d8ee84e5946908924fdeee0bf2e4d9884154b3a60f71816040516112eb91906129a1565b60405180910390a150565b3373ffffffffffffffffffffffffffffffffffffffff16600160009054906101000a900473ffffffffffffffffffffffffffffffffffffffff1673ffffffffffffffffffffffffffffffffffffffff16636352211e846040518263ffffffff1660e01b815260040161136891906120e1565b602060405180830381865afa158015611385573d6000803e3d6000fd5b505050506040513d601f19601f820116820180604052508101906113a99190612111565b73ffffffffffffffffffffffffffffffffffffffff16146113ff576040517f08c379a00000000000000000000000000000000000000000000000000000000081526004016113f69061219b565b60405180910390fd5b3073ffffffffffffffffffffffffffffffffffffffff16600160009054906101000a900473ffffffffffffffffffffffffffffffffffffffff1673ffffffffffffffffffffffffffffffffffffffff1663081812fc846040518263ffffffff1660e01b815260040161147191906120e1565b602060405180830381865afa15801561148e573d6000803e3d6000fd5b505050506040513d601f19601f820116820180604052508101906114b29190612111565b73ffffffffffffffffffffffffffffffffffffffff1614611508576040517f08c379a00000000000000000000000000000000000000000000000000000000081526004016114ff90612a2e565b60405180910390fd5b60405180606001604052803373ffffffffffffffffffffffffffffffffffffffff168152602001828152602001838152506003600084815260200190815260200160002060008201518160000160006101000a81548173ffffffffffffffffffffffffffffffffffffffff021916908373ffffffffffffffffffffffffffffffffffffffff1602179055506020820151816001015560408201518160020155905050600160009054906101000a900473ffffffffffffffffffffffffffffffffffffffff1673ffffffffffffffffffffffffffffffffffffffff166342842e0e3330856040518463ffffffff1660e01b81526004016116099392919061270b565b600060405180830381600087803b15801561162357600080fd5b505af1158015611637573d6000803e3d6000fd5b505050503373ffffffffffffffffffffffffffffffffffffffff167f11a31219eec05ce1db0098041104719cdd975d37809d8b588e9aef778dec027b838360405161168392919061224d565b60405180910390a25050565b61169761185a565b73ffffffffffffffffffffffffffffffffffffffff166116b5610f38565b73ffffffffffffffffffffffffffffffffffffffff161461170b576040517f08c379a000000000000000000000000000000000000000000000000000000000815260040161170290612a9a565b60405180910390fd5b565b611790846323b872dd60e01b85858560405160240161172e9392919061270b565b604051602081830303815290604052907bffffffffffffffffffffffffffffffffffffffffffffffffffffffff19166020820180517bffffffffffffffffffffffffffffffffffffffffffffffffffffffff8381831617835250505050611862565b50505050565b60008060009054906101000a900473ffffffffffffffffffffffffffffffffffffffff169050816000806101000a81548173ffffffffffffffffffffffffffffffffffffffff021916908373ffffffffffffffffffffffffffffffffffffffff1602179055508173ffffffffffffffffffffffffffffffffffffffff168173ffffffffffffffffffffffffffffffffffffffff167f8be0079c531659141344cd1fd0a4f28419497f9722a3daafe3b4186f6b6457e060405160405180910390a35050565b600033905090565b60006118c4826040518060400160405280602081526020017f5361666545524332303a206c6f772d6c6576656c2063616c6c206661696c65648152508573ffffffffffffffffffffffffffffffffffffffff1661192a9092919063ffffffff16565b90506000815114806118e65750808060200190518101906118e59190612393565b5b611925576040517f08c379a000000000000000000000000000000000000000000000000000000000815260040161191c90612b2c565b60405180910390fd5b505050565b60606119398484600085611942565b90509392505050565b606082471015611987576040517f08c379a000000000000000000000000000000000000000000000000000000000815260040161197e90612bbe565b60405180910390fd5b6000808673ffffffffffffffffffffffffffffffffffffffff1685876040516119b09190612c4f565b60006040518083038185875af1925050503d80600081146119ed576040519150601f19603f3d011682016040523d82523d6000602084013e6119f2565b606091505b5091509150611a0387838387611a0f565b92505050949350505050565b60608315611a71576000835103611a6957611a2985611a84565b611a68576040517f08c379a0000000000000000000000000000000000000000000000000000000008152600401611a5f90612cb2565b60405180910390fd5b5b829050611a7c565b611a7b8383611aa7565b5b949350505050565b6000808273ffffffffffffffffffffffffffffffffffffffff163b119050919050565b600082511115611aba5781518083602001fd5b806040517f08c379a0000000000000000000000000000000000000000000000000000000008152600401611aee9190612d16565b60405180910390fd5b6040518060600160405280600073ffffffffffffffffffffffffffffffffffffffff16815260200160008152602001600081525090565b6000604051905090565b600080fd5b600080fd5b6000819050919050565b611b5581611b42565b8114611b6057600080fd5b50565b600081359050611b7281611b4c565b92915050565b60008060408385031215611b8f57611b8e611b38565b5b6000611b9d85828601611b63565b9250506020611bae85828601611b63565b9150509250929050565b600073ffffffffffffffffffffffffffffffffffffffff82169050919050565b6000611be382611bb8565b9050919050565b6000611bf582611bd8565b9050919050565b611c0581611bea565b8114611c1057600080fd5b50565b600081359050611c2281611bfc565b92915050565b600060208284031215611c3e57611c3d611b38565b5b6000611c4c84828501611c13565b91505092915050565b611c5e81611bd8565b8114611c6957600080fd5b50565b600081359050611c7b81611c55565b92915050565b600080fd5b600080fd5b6000601f19601f8301169050919050565b7f4e487b7100000000000000000000000000000000000000000000000000000000600052604160045260246000fd5b611cd482611c8b565b810181811067ffffffffffffffff82111715611cf357611cf2611c9c565b5b80604052505050565b6000611d06611b2e565b9050611d128282611ccb565b919050565b600067ffffffffffffffff821115611d3257611d31611c9c565b5b611d3b82611c8b565b9050602081019050919050565b82818337600083830152505050565b6000611d6a611d6584611d17565b611cfc565b905082815260208101848484011115611d8657611d85611c86565b5b611d91848285611d48565b509392505050565b600082601f830112611dae57611dad611c81565b5b8135611dbe848260208601611d57565b91505092915050565b60008060008060808587031215611de157611de0611b38565b5b6000611def87828801611c6c565b9450506020611e0087828801611c6c565b9350506040611e1187828801611b63565b925050606085013567ffffffffffffffff811115611e3257611e31611b3d565b5b611e3e87828801611d99565b91505092959194509250565b60007fffffffff0000000000000000000000000000000000000000000000000000000082169050919050565b611e7f81611e4a565b82525050565b6000602082019050611e9a6000830184611e76565b92915050565b600060208284031215611eb657611eb5611b38565b5b6000611ec484828501611b63565b91505092915050565b600081519050919050565b600082825260208201905092915050565b6000819050602082019050919050565b6000611f0482611bb8565b9050919050565b611f1481611ef9565b82525050565b611f2381611b42565b82525050565b606082016000820151611f3f6000850182611f0b565b506020820151611f526020850182611f1a565b506040820151611f656040850182611f1a565b50505050565b6000611f778383611f29565b60608301905092915050565b6000602082019050919050565b6000611f9b82611ecd565b611fa58185611ed8565b9350611fb083611ee9565b8060005b83811015611fe1578151611fc88882611f6b565b9750611fd383611f83565b925050600181019050611fb4565b5085935050505092915050565b600060208201905081810360008301526120088184611f90565b905092915050565b61201981611bd8565b82525050565b60006020820190506120346000830184612010565b92915050565b6000602082840312156120505761204f611b38565b5b600061205e84828501611c6c565b91505092915050565b600061207282611bd8565b9050919050565b61208281612067565b811461208d57600080fd5b50565b60008135905061209f81612079565b92915050565b6000602082840312156120bb576120ba611b38565b5b60006120c984828501612090565b91505092915050565b6120db81611b42565b82525050565b60006020820190506120f660008301846120d2565b92915050565b60008151905061210b81611c55565b92915050565b60006020828403121561212757612126611b38565b5b6000612135848285016120fc565b91505092915050565b600082825260208201905092915050565b7f596f7520617265206e6f74206f776e6572206f662074686973206e6674000000600082015250565b6000612185601d8361213e565b91506121908261214f565b602082019050919050565b600060208201905081810360008301526121b481612178565b9050919050565b7f4f6e6c79206f776e65722063616e20757064617465207072696365206f66207460008201527f686973204e667400000000000000000000000000000000000000000000000000602082015250565b600061221760278361213e565b9150612222826121bb565b604082019050919050565b600060208201905081810360008301526122468161220a565b9050919050565b600060408201905061226260008301856120d2565b61226f60208301846120d2565b9392505050565b6000819050919050565b600061229b61229661229184611bb8565b612276565b611bb8565b9050919050565b60006122ad82612280565b9050919050565b60006122bf826122a2565b9050919050565b6122cf816122b4565b82525050565b60006020820190506122ea60008301846122c6565b92915050565b6000815190506122ff81611b4c565b92915050565b60006020828403121561231b5761231a611b38565b5b6000612329848285016122f0565b91505092915050565b60006040820190506123476000830185612010565b61235460208301846120d2565b9392505050565b60008115159050919050565b6123708161235b565b811461237b57600080fd5b50565b60008151905061238d81612367565b92915050565b6000602082840312156123a9576123a8611b38565b5b60006123b78482850161237e565b91505092915050565b7f496e73756666696369656e7420636f6e74726163742062616c616e6365000000600082015250565b60006123f6601d8361213e565b9150612401826123c0565b602082019050919050565b60006020820190508181036000830152612425816123e9565b9050919050565b7f496e73756666696369656e74206163636f756e742062616c616e636500000000600082015250565b6000612462601c8361213e565b915061246d8261242c565b602082019050919050565b6000602082019050818103600083015261249181612455565b9050919050565b7f54686973204e667420646f65736e27742065786974206f6e206d61726b65747060008201527f6c61636500000000000000000000000000000000000000000000000000000000602082015250565b60006124f460248361213e565b91506124ff82612498565b604082019050919050565b60006020820190508181036000830152612523816124e7565b9050919050565b7f4d696e696d756d20707269636520686173206e6f74206265656e20726561636860008201527f6564000000000000000000000000000000000000000000000000000000000000602082015250565b600061258660228361213e565b91506125918261252a565b604082019050919050565b600060208201905081810360008301526125b581612579565b9050919050565b7f4e487b7100000000000000000000000000000000000000000000000000000000600052601160045260246000fd5b60006125f682611b42565b915061260183611b42565b9250828203905081811115612619576126186125bc565b5b92915050565b600061262a82611b42565b915061263583611b42565b925082820261264381611b42565b9150828204841483151761265a576126596125bc565b5b5092915050565b7f4e487b7100000000000000000000000000000000000000000000000000000000600052601260045260246000fd5b600061269b82611b42565b91506126a683611b42565b9250826126b6576126b5612661565b5b828204905092915050565b60006126cc826122a2565b9050919050565b6126dc816126c1565b82525050565b60006040820190506126f760008301856126d3565b61270460208301846120d2565b9392505050565b60006060820190506127206000830186612010565b61272d6020830185612010565b61273a60408301846120d2565b949350505050565b60006060820190506127576000830186612010565b61276460208301856120d2565b61277160408301846120d2565b949350505050565b7f4e487b7100000000000000000000000000000000000000000000000000000000600052603260045260246000fd5b60006127b382611b42565b91507fffffffffffffffffffffffffffffffffffffffffffffffffffffffffffffffff82036127e5576127e46125bc565b5b600182019050919050565b7f5468697320746f6b656e20646f65736e27742065786974206f6e206d61726b6560008201527f74706c6163650000000000000000000000000000000000000000000000000000602082015250565b600061284c60268361213e565b9150612857826127f0565b604082019050919050565b6000602082019050818103600083015261287b8161283f565b9050919050565b7f4f6e6c79204f776e65722063616e20756e6c6973742074686973206e66740000600082015250565b60006128b8601e8361213e565b91506128c382612882565b602082019050919050565b600060208201905081810360008301526128e7816128ab565b9050919050565b7f4f776e61626c653a206e6577206f776e657220697320746865207a65726f206160008201527f6464726573730000000000000000000000000000000000000000000000000000602082015250565b600061294a60268361213e565b9150612955826128ee565b604082019050919050565b600060208201905081810360008301526129798161293d565b9050919050565b600061298b826122a2565b9050919050565b61299b81612980565b82525050565b60006020820190506129b66000830184612992565b92915050565b7f4d61726b6574706c616365206973206e6f7420617070726f76616c20746f207460008201527f72616e6665722074686973206e66740000000000000000000000000000000000602082015250565b6000612a18602f8361213e565b9150612a23826129bc565b604082019050919050565b60006020820190508181036000830152612a4781612a0b565b9050919050565b7f4f776e61626c653a2063616c6c6572206973206e6f7420746865206f776e6572600082015250565b6000612a8460208361213e565b9150612a8f82612a4e565b602082019050919050565b60006020820190508181036000830152612ab381612a77565b9050919050565b7f5361666545524332303a204552433230206f7065726174696f6e20646964206e60008201527f6f74207375636365656400000000000000000000000000000000000000000000602082015250565b6000612b16602a8361213e565b9150612b2182612aba565b604082019050919050565b60006020820190508181036000830152612b4581612b09565b9050919050565b7f416464726573733a20696e73756666696369656e742062616c616e636520666f60008201527f722063616c6c0000000000000000000000000000000000000000000000000000602082015250565b6000612ba860268361213e565b9150612bb382612b4c565b604082019050919050565b60006020820190508181036000830152612bd781612b9b565b9050919050565b600081519050919050565b600081905092915050565b60005b83811015612c12578082015181840152602081019050612bf7565b60008484015250505050565b6000612c2982612bde565b612c338185612be9565b9350612c43818560208601612bf4565b80840191505092915050565b6000612c5b8284612c1e565b915081905092915050565b7f416464726573733a2063616c6c20746f206e6f6e2d636f6e7472616374000000600082015250565b6000612c9c601d8361213e565b9150612ca782612c66565b602082019050919050565b60006020820190508181036000830152612ccb81612c8f565b9050919050565b600081519050919050565b6000612ce882612cd2565b612cf2818561213e565b9350612d02818560208601612bf4565b612d0b81611c8b565b840191505092915050565b60006020820190508181036000830152612d308184612cdd565b90509291505056fea2646970667358221220a4fbd013b8524b86eaf4a27ab291d46d9c1fb8b7106db7accc891e626d769ad864736f6c63430008130033",
  "linkReferences": {},
  "deployedLinkReferences": {}
}